{"contracts/DataStorage.sol":{"DataStorage":{"abi":[{"inputs":[],"stateMutability":"nonpayable","type":"constructor"},{"inputs":[{"internalType":"address","name":"userAddress","type":"address"}],"name":"buy","outputs":[],"stateMutability":"payable","type":"function"},{"inputs":[{"internalType":"address","name":"","type":"address"}],"name":"genomeData","outputs":[{"internalType":"string","name":"encryptedData","type":"string"},{"internalType":"string","name":"typeOfData","type":"string"},{"internalType":"uint16","name":"price","type":"uint16"},{"internalType":"address","name":"userAddress","type":"address"}],"stateMutability":"view","type":"function"},{"inputs":[],"name":"getData","outputs":[{"components":[{"internalType":"string","name":"encryptedData","type":"string"},{"internalType":"address[]","name":"permittedAddresses","type":"address[]"},{"internalType":"string","name":"typeOfData","type":"string"},{"internalType":"uint16","name":"price","type":"uint16"},{"internalType":"address","name":"userAddress","type":"address"}],"internalType":"struct DataStorage.GenomeData[]","name":"","type":"tuple[]"}],"stateMutability":"view","type":"function"},{"inputs":[],"name":"retractData","outputs":[],"stateMutability":"nonpayable","type":"function"},{"inputs":[{"components":[{"internalType":"string","name":"encryptedData","type":"string"},{"internalType":"address[]","name":"permittedAddresses","type":"address[]"},{"internalType":"string","name":"typeOfData","type":"string"},{"internalType":"uint16","name":"price","type":"uint16"},{"internalType":"address","name":"userAddress","type":"address"}],"internalType":"struct DataStorage.GenomeData","name":"data","type":"tuple"}],"name":"updateData","outputs":[],"stateMutability":"payable","type":"function"},{"inputs":[{"internalType":"string","name":"encryptedData","type":"string"},{"internalType":"string","name":"typeOfData","type":"string"},{"internalType":"uint16","name":"price","type":"uint16"}],"name":"uploadData","outputs":[],"stateMutability":"nonpayable","type":"function"}],"devdoc":{"kind":"dev","methods":{},"version":1},"evm":{"bytecode":{"linkReferences":{},"object":"608060405234801561001057600080fd5b50611abc806100206000396000f3fe6080604052600436106100555760003560e01c80632af6d2a11461005a5780633bc5de3014610076578063590d33d6146100a1578063808731e8146100b8578063c2881906146100f8578063f088d54714610121575b600080fd5b610074600480360381019061006f919061117c565b61013d565b005b34801561008257600080fd5b5061008b610215565b6040516100989190611457565b60405180910390f35b3480156100ad57600080fd5b506100b6610578565b005b3480156100c457600080fd5b506100df60048036038101906100da9190611479565b610627565b6040516100ef949392919061150e565b60405180910390f35b34801561010457600080fd5b5061011f600480360381019061011a91906115bc565b610795565b005b61013b60048036038101906101369190611479565b610a1c565b005b60008060003373ffffffffffffffffffffffffffffffffffffffff1673ffffffffffffffffffffffffffffffffffffffff168152602001908152602001600020905081600001518160000190816101949190611867565b5081604001518160020190816101aa9190611867565b5081606001518160030160006101000a81548161ffff021916908361ffff160217905550338160030160026101000a81548173ffffffffffffffffffffffffffffffffffffffff021916908373ffffffffffffffffffffffffffffffffffffffff1602179055505050565b6060600060018054905067ffffffffffffffff81111561023857610237610e02565b5b60405190808252806020026020018201604052801561027157816020015b61025e610c7d565b8152602001906001900390816102565790505b50905060005b6001805490508161ffff1610156105705760008060018361ffff16815481106102a3576102a2611939565b5b9060005260206000200160009054906101000a900473ffffffffffffffffffffffffffffffffffffffff1673ffffffffffffffffffffffffffffffffffffffff1673ffffffffffffffffffffffffffffffffffffffff1681526020019081526020016000206040518060a001604052908160008201805461032390611680565b80601f016020809104026020016040519081016040528092919081815260200182805461034f90611680565b801561039c5780601f106103715761010080835404028352916020019161039c565b820191906000526020600020905b81548152906001019060200180831161037f57829003601f168201915b505050505081526020016001820180548060200260200160405190810160405280929190818152602001828054801561042a57602002820191906000526020600020905b8160009054906101000a900473ffffffffffffffffffffffffffffffffffffffff1673ffffffffffffffffffffffffffffffffffffffff16815260200190600101908083116103e0575b5050505050815260200160028201805461044390611680565b80601f016020809104026020016040519081016040528092919081815260200182805461046f90611680565b80156104bc5780601f10610491576101008083540402835291602001916104bc565b820191906000526020600020905b81548152906001019060200180831161049f57829003601f168201915b505050505081526020016003820160009054906101000a900461ffff1661ffff1661ffff1681526020016003820160029054906101000a900473ffffffffffffffffffffffffffffffffffffffff1673ffffffffffffffffffffffffffffffffffffffff1673ffffffffffffffffffffffffffffffffffffffff1681525050828261ffff168151811061055257610551611939565b5b6020026020010181905250808061056890611997565b915050610277565b508091505090565b6000803373ffffffffffffffffffffffffffffffffffffffff1673ffffffffffffffffffffffffffffffffffffffff168152602001908152602001600020600080820160006105c79190610cc6565b6001820160006105d79190610d06565b6002820160006105e79190610cc6565b6003820160006101000a81549061ffff02191690556003820160026101000a81549073ffffffffffffffffffffffffffffffffffffffff02191690555050565b600060205280600052604060002060009150905080600001805461064a90611680565b80601f016020809104026020016040519081016040528092919081815260200182805461067690611680565b80156106c35780601f10610698576101008083540402835291602001916106c3565b820191906000526020600020905b8154815290600101906020018083116106a657829003601f168201915b5050505050908060020180546106d890611680565b80601f016020809104026020016040519081016040528092919081815260200182805461070490611680565b80156107515780601f1061072657610100808354040283529160200191610751565b820191906000526020600020905b81548152906001019060200180831161073457829003601f168201915b5050505050908060030160009054906101000a900461ffff16908060030160029054906101000a900473ffffffffffffffffffffffffffffffffffffffff16905084565b60006040518060a0016040528087878080601f016020809104026020016040519081016040528093929190818152602001838380828437600081840152601f19601f820116905080830192505050505050508152602001600067ffffffffffffffff81111561080757610806610e02565b5b6040519080825280602002602001820160405280156108355781602001602082028036833780820191505090505b50815260200185858080601f016020809104026020016040519081016040528093929190818152602001838380828437600081840152601f19601f8201169050808301925050505050505081526020018361ffff1681526020013373ffffffffffffffffffffffffffffffffffffffff168152509050806000803373ffffffffffffffffffffffffffffffffffffffff1673ffffffffffffffffffffffffffffffffffffffff16815260200190815260200160002060008201518160000190816108ff9190611867565b50602082015181600101908051906020019061091c929190610d27565b5060408201518160020190816109329190611867565b5060608201518160030160006101000a81548161ffff021916908361ffff16021790555060808201518160030160026101000a81548173ffffffffffffffffffffffffffffffffffffffff021916908373ffffffffffffffffffffffffffffffffffffffff1602179055509050506001339080600181540180825580915050600190039060005260206000200160009091909190916101000a81548173ffffffffffffffffffffffffffffffffffffffff021916908373ffffffffffffffffffffffffffffffffffffffff160217905550610a14816060015161ffff16610b9e565b505050505050565b6000808273ffffffffffffffffffffffffffffffffffffffff1673ffffffffffffffffffffffffffffffffffffffff16815260200190815260200160002060030160009054906101000a900461ffff1661ffff16341015610ab2576040517f08c379a0000000000000000000000000000000000000000000000000000000008152600401610aa990611a0d565b60405180910390fd5b6000808273ffffffffffffffffffffffffffffffffffffffff1673ffffffffffffffffffffffffffffffffffffffff168152602001908152602001600020600101339080600181540180825580915050600190039060005260206000200160009091909190916101000a81548173ffffffffffffffffffffffffffffffffffffffff021916908373ffffffffffffffffffffffffffffffffffffffff1602179055508073ffffffffffffffffffffffffffffffffffffffff166108fc349081150290604051600060405180830381858888f19350505050158015610b9a573d6000803e3d6000fd5b5050565b610c3481604051602401610bb29190611a3c565b6040516020818303038152906040527ff82c50f1000000000000000000000000000000000000000000000000000000007bffffffffffffffffffffffffffffffffffffffffffffffffffffffff19166020820180517bffffffffffffffffffffffffffffffffffffffffffffffffffffffff8381831617835250505050610c37565b50565b610c4e81610c46610c51610c72565b63ffffffff16565b50565b60006a636f6e736f6c652e6c6f679050600080835160208501845afa505050565b610db1819050919050565b6040518060a00160405280606081526020016060815260200160608152602001600061ffff168152602001600073ffffffffffffffffffffffffffffffffffffffff1681525090565b508054610cd290611680565b6000825580601f10610ce45750610d03565b601f016020900490600052602060002090810190610d029190610dbb565b5b50565b5080546000825590600052602060002090810190610d249190610dbb565b50565b828054828255906000526020600020908101928215610da0579160200282015b82811115610d9f5782518260006101000a81548173ffffffffffffffffffffffffffffffffffffffff021916908373ffffffffffffffffffffffffffffffffffffffff16021790555091602001919060010190610d47565b5b509050610dad9190610dbb565b5090565b610db9611a57565b565b5b80821115610dd4576000816000905550600101610dbc565b5090565b6000604051905090565b600080fd5b600080fd5b600080fd5b6000601f19601f8301169050919050565b7f4e487b7100000000000000000000000000000000000000000000000000000000600052604160045260246000fd5b610e3a82610df1565b810181811067ffffffffffffffff82111715610e5957610e58610e02565b5b80604052505050565b6000610e6c610dd8565b9050610e788282610e31565b919050565b600080fd5b600080fd5b600080fd5b600067ffffffffffffffff821115610ea757610ea6610e02565b5b610eb082610df1565b9050602081019050919050565b82818337600083830152505050565b6000610edf610eda84610e8c565b610e62565b905082815260208101848484011115610efb57610efa610e87565b5b610f06848285610ebd565b509392505050565b600082601f830112610f2357610f22610e82565b5b8135610f33848260208601610ecc565b91505092915050565b600067ffffffffffffffff821115610f5757610f56610e02565b5b602082029050602081019050919050565b600080fd5b600073ffffffffffffffffffffffffffffffffffffffff82169050919050565b6000610f9882610f6d565b9050919050565b610fa881610f8d565b8114610fb357600080fd5b50565b600081359050610fc581610f9f565b92915050565b6000610fde610fd984610f3c565b610e62565b9050808382526020820190506020840283018581111561100157611000610f68565b5b835b8181101561102a57806110168882610fb6565b845260208401935050602081019050611003565b5050509392505050565b600082601f83011261104957611048610e82565b5b8135611059848260208601610fcb565b91505092915050565b600061ffff82169050919050565b61107981611062565b811461108457600080fd5b50565b60008135905061109681611070565b92915050565b600060a082840312156110b2576110b1610dec565b5b6110bc60a0610e62565b9050600082013567ffffffffffffffff8111156110dc576110db610e7d565b5b6110e884828501610f0e565b600083015250602082013567ffffffffffffffff81111561110c5761110b610e7d565b5b61111884828501611034565b602083015250604082013567ffffffffffffffff81111561113c5761113b610e7d565b5b61114884828501610f0e565b604083015250606061115c84828501611087565b606083015250608061117084828501610fb6565b60808301525092915050565b60006020828403121561119257611191610de2565b5b600082013567ffffffffffffffff8111156111b0576111af610de7565b5b6111bc8482850161109c565b91505092915050565b600081519050919050565b600082825260208201905092915050565b6000819050602082019050919050565b600081519050919050565b600082825260208201905092915050565b60005b8381101561122b578082015181840152602081019050611210565b60008484015250505050565b6000611242826111f1565b61124c81856111fc565b935061125c81856020860161120d565b61126581610df1565b840191505092915050565b600081519050919050565b600082825260208201905092915050565b6000819050602082019050919050565b6112a581610f8d565b82525050565b60006112b7838361129c565b60208301905092915050565b6000602082019050919050565b60006112db82611270565b6112e5818561127b565b93506112f08361128c565b8060005b8381101561132157815161130888826112ab565b9750611313836112c3565b9250506001810190506112f4565b5085935050505092915050565b61133781611062565b82525050565b600060a083016000830151848203600086015261135a8282611237565b9150506020830151848203602086015261137482826112d0565b9150506040830151848203604086015261138e8282611237565b91505060608301516113a3606086018261132e565b5060808301516113b6608086018261129c565b508091505092915050565b60006113cd838361133d565b905092915050565b6000602082019050919050565b60006113ed826111c5565b6113f781856111d0565b935083602082028501611409856111e1565b8060005b85811015611445578484038952815161142685826113c1565b9450611431836113d5565b925060208a0199505060018101905061140d565b50829750879550505050505092915050565b6000602082019050818103600083015261147181846113e2565b905092915050565b60006020828403121561148f5761148e610de2565b5b600061149d84828501610fb6565b91505092915050565b600082825260208201905092915050565b60006114c2826111f1565b6114cc81856114a6565b93506114dc81856020860161120d565b6114e581610df1565b840191505092915050565b6114f981611062565b82525050565b61150881610f8d565b82525050565b6000608082019050818103600083015261152881876114b7565b9050818103602083015261153c81866114b7565b905061154b60408301856114f0565b61155860608301846114ff565b95945050505050565b600080fd5b60008083601f84011261157c5761157b610e82565b5b8235905067ffffffffffffffff81111561159957611598611561565b5b6020830191508360018202830111156115b5576115b4610f68565b5b9250929050565b6000806000806000606086880312156115d8576115d7610de2565b5b600086013567ffffffffffffffff8111156115f6576115f5610de7565b5b61160288828901611566565b9550955050602086013567ffffffffffffffff81111561162557611624610de7565b5b61163188828901611566565b9350935050604061164488828901611087565b9150509295509295909350565b7f4e487b7100000000000000000000000000000000000000000000000000000000600052602260045260246000fd5b6000600282049050600182168061169857607f821691505b6020821081036116ab576116aa611651565b5b50919050565b60008190508160005260206000209050919050565b60006020601f8301049050919050565b600082821b905092915050565b6000600883026117137fffffffffffffffffffffffffffffffffffffffffffffffffffffffffffffffff826116d6565b61171d86836116d6565b95508019841693508086168417925050509392505050565b6000819050919050565b6000819050919050565b600061176461175f61175a84611735565b61173f565b611735565b9050919050565b6000819050919050565b61177e83611749565b61179261178a8261176b565b8484546116e3565b825550505050565b600090565b6117a761179a565b6117b2818484611775565b505050565b5b818110156117d6576117cb60008261179f565b6001810190506117b8565b5050565b601f82111561181b576117ec816116b1565b6117f5846116c6565b81016020851015611804578190505b611818611810856116c6565b8301826117b7565b50505b505050565b600082821c905092915050565b600061183e60001984600802611820565b1980831691505092915050565b6000611857838361182d565b9150826002028217905092915050565b611870826111f1565b67ffffffffffffffff81111561188957611888610e02565b5b6118938254611680565b61189e8282856117da565b600060209050601f8311600181146118d157600084156118bf578287015190505b6118c9858261184b565b865550611931565b601f1984166118df866116b1565b60005b82811015611907578489015182556001820191506020850194506020810190506118e2565b868310156119245784890151611920601f89168261182d565b8355505b6001600288020188555050505b505050505050565b7f4e487b7100000000000000000000000000000000000000000000000000000000600052603260045260246000fd5b7f4e487b7100000000000000000000000000000000000000000000000000000000600052601160045260246000fd5b60006119a282611062565b915061ffff82036119b6576119b5611968565b5b600182019050919050565b7f4e6f7420656e6f7567682066756e647320746f20707572636861736500000000600082015250565b60006119f7601c836114a6565b9150611a02826119c1565b602082019050919050565b60006020820190508181036000830152611a26816119ea565b9050919050565b611a3681611735565b82525050565b6000602082019050611a516000830184611a2d565b92915050565b7f4e487b7100000000000000000000000000000000000000000000000000000000600052605160045260246000fdfea264697066735822122006cb2da984dd52080986ef9f0508ec873e2ce485ea19a7dca5a4d5997190b68a64736f6c63430008180033","opcodes":"PUSH1 0x80 PUSH1 0x40 MSTORE CALLVALUE DUP1 ISZERO PUSH2 0x10 JUMPI PUSH1 0x0 DUP1 REVERT JUMPDEST POP PUSH2 0x1ABC DUP1 PUSH2 0x20 PUSH1 0x0 CODECOPY PUSH1 0x0 RETURN INVALID PUSH1 0x80 PUSH1 0x40 MSTORE PUSH1 0x4 CALLDATASIZE LT PUSH2 0x55 JUMPI PUSH1 0x0 CALLDATALOAD PUSH1 0xE0 SHR DUP1 PUSH4 0x2AF6D2A1 EQ PUSH2 0x5A JUMPI DUP1 PUSH4 0x3BC5DE30 EQ PUSH2 0x76 JUMPI DUP1 PUSH4 0x590D33D6 EQ PUSH2 0xA1 JUMPI DUP1 PUSH4 0x808731E8 EQ PUSH2 0xB8 JUMPI DUP1 PUSH4 0xC2881906 EQ PUSH2 0xF8 JUMPI DUP1 PUSH4 0xF088D547 EQ PUSH2 0x121 JUMPI JUMPDEST PUSH1 0x0 DUP1 REVERT JUMPDEST PUSH2 0x74 PUSH1 0x4 DUP1 CALLDATASIZE SUB DUP2 ADD SWAP1 PUSH2 0x6F SWAP2 SWAP1 PUSH2 0x117C JUMP JUMPDEST PUSH2 0x13D JUMP JUMPDEST STOP JUMPDEST CALLVALUE DUP1 ISZERO PUSH2 0x82 JUMPI PUSH1 0x0 DUP1 REVERT JUMPDEST POP PUSH2 0x8B PUSH2 0x215 JUMP JUMPDEST PUSH1 0x40 MLOAD PUSH2 0x98 SWAP2 SWAP1 PUSH2 0x1457 JUMP JUMPDEST PUSH1 0x40 MLOAD DUP1 SWAP2 SUB SWAP1 RETURN JUMPDEST CALLVALUE DUP1 ISZERO PUSH2 0xAD JUMPI PUSH1 0x0 DUP1 REVERT JUMPDEST POP PUSH2 0xB6 PUSH2 0x578 JUMP JUMPDEST STOP JUMPDEST CALLVALUE DUP1 ISZERO PUSH2 0xC4 JUMPI PUSH1 0x0 DUP1 REVERT JUMPDEST POP PUSH2 0xDF PUSH1 0x4 DUP1 CALLDATASIZE SUB DUP2 ADD SWAP1 PUSH2 0xDA SWAP2 SWAP1 PUSH2 0x1479 JUMP JUMPDEST PUSH2 0x627 JUMP JUMPDEST PUSH1 0x40 MLOAD PUSH2 0xEF SWAP5 SWAP4 SWAP3 SWAP2 SWAP1 PUSH2 0x150E JUMP JUMPDEST PUSH1 0x40 MLOAD DUP1 SWAP2 SUB SWAP1 RETURN JUMPDEST CALLVALUE DUP1 ISZERO PUSH2 0x104 JUMPI PUSH1 0x0 DUP1 REVERT JUMPDEST POP PUSH2 0x11F PUSH1 0x4 DUP1 CALLDATASIZE SUB DUP2 ADD SWAP1 PUSH2 0x11A SWAP2 SWAP1 PUSH2 0x15BC JUMP JUMPDEST PUSH2 0x795 JUMP JUMPDEST STOP JUMPDEST PUSH2 0x13B PUSH1 0x4 DUP1 CALLDATASIZE SUB DUP2 ADD SWAP1 PUSH2 0x136 SWAP2 SWAP1 PUSH2 0x1479 JUMP JUMPDEST PUSH2 0xA1C JUMP JUMPDEST STOP JUMPDEST PUSH1 0x0 DUP1 PUSH1 0x0 CALLER PUSH20 0xFFFFFFFFFFFFFFFFFFFFFFFFFFFFFFFFFFFFFFFF AND PUSH20 0xFFFFFFFFFFFFFFFFFFFFFFFFFFFFFFFFFFFFFFFF AND DUP2 MSTORE PUSH1 0x20 ADD SWAP1 DUP2 MSTORE PUSH1 0x20 ADD PUSH1 0x0 KECCAK256 SWAP1 POP DUP2 PUSH1 0x0 ADD MLOAD DUP2 PUSH1 0x0 ADD SWAP1 DUP2 PUSH2 0x194 SWAP2 SWAP1 PUSH2 0x1867 JUMP JUMPDEST POP DUP2 PUSH1 0x40 ADD MLOAD DUP2 PUSH1 0x2 ADD SWAP1 DUP2 PUSH2 0x1AA SWAP2 SWAP1 PUSH2 0x1867 JUMP JUMPDEST POP DUP2 PUSH1 0x60 ADD MLOAD DUP2 PUSH1 0x3 ADD PUSH1 0x0 PUSH2 0x100 EXP DUP2 SLOAD DUP2 PUSH2 0xFFFF MUL NOT AND SWAP1 DUP4 PUSH2 0xFFFF AND MUL OR SWAP1 SSTORE POP CALLER DUP2 PUSH1 0x3 ADD PUSH1 0x2 PUSH2 0x100 EXP DUP2 SLOAD DUP2 PUSH20 0xFFFFFFFFFFFFFFFFFFFFFFFFFFFFFFFFFFFFFFFF MUL NOT AND SWAP1 DUP4 PUSH20 0xFFFFFFFFFFFFFFFFFFFFFFFFFFFFFFFFFFFFFFFF AND MUL OR SWAP1 SSTORE POP POP POP JUMP JUMPDEST PUSH1 0x60 PUSH1 0x0 PUSH1 0x1 DUP1 SLOAD SWAP1 POP PUSH8 0xFFFFFFFFFFFFFFFF DUP2 GT ISZERO PUSH2 0x238 JUMPI PUSH2 0x237 PUSH2 0xE02 JUMP JUMPDEST JUMPDEST PUSH1 0x40 MLOAD SWAP1 DUP1 DUP3 MSTORE DUP1 PUSH1 0x20 MUL PUSH1 0x20 ADD DUP3 ADD PUSH1 0x40 MSTORE DUP1 ISZERO PUSH2 0x271 JUMPI DUP2 PUSH1 0x20 ADD JUMPDEST PUSH2 0x25E PUSH2 0xC7D JUMP JUMPDEST DUP2 MSTORE PUSH1 0x20 ADD SWAP1 PUSH1 0x1 SWAP1 SUB SWAP1 DUP2 PUSH2 0x256 JUMPI SWAP1 POP JUMPDEST POP SWAP1 POP PUSH1 0x0 JUMPDEST PUSH1 0x1 DUP1 SLOAD SWAP1 POP DUP2 PUSH2 0xFFFF AND LT ISZERO PUSH2 0x570 JUMPI PUSH1 0x0 DUP1 PUSH1 0x1 DUP4 PUSH2 0xFFFF AND DUP2 SLOAD DUP2 LT PUSH2 0x2A3 JUMPI PUSH2 0x2A2 PUSH2 0x1939 JUMP JUMPDEST JUMPDEST SWAP1 PUSH1 0x0 MSTORE PUSH1 0x20 PUSH1 0x0 KECCAK256 ADD PUSH1 0x0 SWAP1 SLOAD SWAP1 PUSH2 0x100 EXP SWAP1 DIV PUSH20 0xFFFFFFFFFFFFFFFFFFFFFFFFFFFFFFFFFFFFFFFF AND PUSH20 0xFFFFFFFFFFFFFFFFFFFFFFFFFFFFFFFFFFFFFFFF AND PUSH20 0xFFFFFFFFFFFFFFFFFFFFFFFFFFFFFFFFFFFFFFFF AND DUP2 MSTORE PUSH1 0x20 ADD SWAP1 DUP2 MSTORE PUSH1 0x20 ADD PUSH1 0x0 KECCAK256 PUSH1 0x40 MLOAD DUP1 PUSH1 0xA0 ADD PUSH1 0x40 MSTORE SWAP1 DUP2 PUSH1 0x0 DUP3 ADD DUP1 SLOAD PUSH2 0x323 SWAP1 PUSH2 0x1680 JUMP JUMPDEST DUP1 PUSH1 0x1F ADD PUSH1 0x20 DUP1 SWAP2 DIV MUL PUSH1 0x20 ADD PUSH1 0x40 MLOAD SWAP1 DUP2 ADD PUSH1 0x40 MSTORE DUP1 SWAP3 SWAP2 SWAP1 DUP2 DUP2 MSTORE PUSH1 0x20 ADD DUP3 DUP1 SLOAD PUSH2 0x34F SWAP1 PUSH2 0x1680 JUMP JUMPDEST DUP1 ISZERO PUSH2 0x39C JUMPI DUP1 PUSH1 0x1F LT PUSH2 0x371 JUMPI PUSH2 0x100 DUP1 DUP4 SLOAD DIV MUL DUP4 MSTORE SWAP2 PUSH1 0x20 ADD SWAP2 PUSH2 0x39C JUMP JUMPDEST DUP3 ADD SWAP2 SWAP1 PUSH1 0x0 MSTORE PUSH1 0x20 PUSH1 0x0 KECCAK256 SWAP1 JUMPDEST DUP2 SLOAD DUP2 MSTORE SWAP1 PUSH1 0x1 ADD SWAP1 PUSH1 0x20 ADD DUP1 DUP4 GT PUSH2 0x37F JUMPI DUP3 SWAP1 SUB PUSH1 0x1F AND DUP3 ADD SWAP2 JUMPDEST POP POP POP POP POP DUP2 MSTORE PUSH1 0x20 ADD PUSH1 0x1 DUP3 ADD DUP1 SLOAD DUP1 PUSH1 0x20 MUL PUSH1 0x20 ADD PUSH1 0x40 MLOAD SWAP1 DUP2 ADD PUSH1 0x40 MSTORE DUP1 SWAP3 SWAP2 SWAP1 DUP2 DUP2 MSTORE PUSH1 0x20 ADD DUP3 DUP1 SLOAD DUP1 ISZERO PUSH2 0x42A JUMPI PUSH1 0x20 MUL DUP3 ADD SWAP2 SWAP1 PUSH1 0x0 MSTORE PUSH1 0x20 PUSH1 0x0 KECCAK256 SWAP1 JUMPDEST DUP2 PUSH1 0x0 SWAP1 SLOAD SWAP1 PUSH2 0x100 EXP SWAP1 DIV PUSH20 0xFFFFFFFFFFFFFFFFFFFFFFFFFFFFFFFFFFFFFFFF AND PUSH20 0xFFFFFFFFFFFFFFFFFFFFFFFFFFFFFFFFFFFFFFFF AND DUP2 MSTORE PUSH1 0x20 ADD SWAP1 PUSH1 0x1 ADD SWAP1 DUP1 DUP4 GT PUSH2 0x3E0 JUMPI JUMPDEST POP POP POP POP POP DUP2 MSTORE PUSH1 0x20 ADD PUSH1 0x2 DUP3 ADD DUP1 SLOAD PUSH2 0x443 SWAP1 PUSH2 0x1680 JUMP JUMPDEST DUP1 PUSH1 0x1F ADD PUSH1 0x20 DUP1 SWAP2 DIV MUL PUSH1 0x20 ADD PUSH1 0x40 MLOAD SWAP1 DUP2 ADD PUSH1 0x40 MSTORE DUP1 SWAP3 SWAP2 SWAP1 DUP2 DUP2 MSTORE PUSH1 0x20 ADD DUP3 DUP1 SLOAD PUSH2 0x46F SWAP1 PUSH2 0x1680 JUMP JUMPDEST DUP1 ISZERO PUSH2 0x4BC JUMPI DUP1 PUSH1 0x1F LT PUSH2 0x491 JUMPI PUSH2 0x100 DUP1 DUP4 SLOAD DIV MUL DUP4 MSTORE SWAP2 PUSH1 0x20 ADD SWAP2 PUSH2 0x4BC JUMP JUMPDEST DUP3 ADD SWAP2 SWAP1 PUSH1 0x0 MSTORE PUSH1 0x20 PUSH1 0x0 KECCAK256 SWAP1 JUMPDEST DUP2 SLOAD DUP2 MSTORE SWAP1 PUSH1 0x1 ADD SWAP1 PUSH1 0x20 ADD DUP1 DUP4 GT PUSH2 0x49F JUMPI DUP3 SWAP1 SUB PUSH1 0x1F AND DUP3 ADD SWAP2 JUMPDEST POP POP POP POP POP DUP2 MSTORE PUSH1 0x20 ADD PUSH1 0x3 DUP3 ADD PUSH1 0x0 SWAP1 SLOAD SWAP1 PUSH2 0x100 EXP SWAP1 DIV PUSH2 0xFFFF AND PUSH2 0xFFFF AND PUSH2 0xFFFF AND DUP2 MSTORE PUSH1 0x20 ADD PUSH1 0x3 DUP3 ADD PUSH1 0x2 SWAP1 SLOAD SWAP1 PUSH2 0x100 EXP SWAP1 DIV PUSH20 0xFFFFFFFFFFFFFFFFFFFFFFFFFFFFFFFFFFFFFFFF AND PUSH20 0xFFFFFFFFFFFFFFFFFFFFFFFFFFFFFFFFFFFFFFFF AND PUSH20 0xFFFFFFFFFFFFFFFFFFFFFFFFFFFFFFFFFFFFFFFF AND DUP2 MSTORE POP POP DUP3 DUP3 PUSH2 0xFFFF AND DUP2 MLOAD DUP2 LT PUSH2 0x552 JUMPI PUSH2 0x551 PUSH2 0x1939 JUMP JUMPDEST JUMPDEST PUSH1 0x20 MUL PUSH1 0x20 ADD ADD DUP2 SWAP1 MSTORE POP DUP1 DUP1 PUSH2 0x568 SWAP1 PUSH2 0x1997 JUMP JUMPDEST SWAP2 POP POP PUSH2 0x277 JUMP JUMPDEST POP DUP1 SWAP2 POP POP SWAP1 JUMP JUMPDEST PUSH1 0x0 DUP1 CALLER PUSH20 0xFFFFFFFFFFFFFFFFFFFFFFFFFFFFFFFFFFFFFFFF AND PUSH20 0xFFFFFFFFFFFFFFFFFFFFFFFFFFFFFFFFFFFFFFFF AND DUP2 MSTORE PUSH1 0x20 ADD SWAP1 DUP2 MSTORE PUSH1 0x20 ADD PUSH1 0x0 KECCAK256 PUSH1 0x0 DUP1 DUP3 ADD PUSH1 0x0 PUSH2 0x5C7 SWAP2 SWAP1 PUSH2 0xCC6 JUMP JUMPDEST PUSH1 0x1 DUP3 ADD PUSH1 0x0 PUSH2 0x5D7 SWAP2 SWAP1 PUSH2 0xD06 JUMP JUMPDEST PUSH1 0x2 DUP3 ADD PUSH1 0x0 PUSH2 0x5E7 SWAP2 SWAP1 PUSH2 0xCC6 JUMP JUMPDEST PUSH1 0x3 DUP3 ADD PUSH1 0x0 PUSH2 0x100 EXP DUP2 SLOAD SWAP1 PUSH2 0xFFFF MUL NOT AND SWAP1 SSTORE PUSH1 0x3 DUP3 ADD PUSH1 0x2 PUSH2 0x100 EXP DUP2 SLOAD SWAP1 PUSH20 0xFFFFFFFFFFFFFFFFFFFFFFFFFFFFFFFFFFFFFFFF MUL NOT AND SWAP1 SSTORE POP POP JUMP JUMPDEST PUSH1 0x0 PUSH1 0x20 MSTORE DUP1 PUSH1 0x0 MSTORE PUSH1 0x40 PUSH1 0x0 KECCAK256 PUSH1 0x0 SWAP2 POP SWAP1 POP DUP1 PUSH1 0x0 ADD DUP1 SLOAD PUSH2 0x64A SWAP1 PUSH2 0x1680 JUMP JUMPDEST DUP1 PUSH1 0x1F ADD PUSH1 0x20 DUP1 SWAP2 DIV MUL PUSH1 0x20 ADD PUSH1 0x40 MLOAD SWAP1 DUP2 ADD PUSH1 0x40 MSTORE DUP1 SWAP3 SWAP2 SWAP1 DUP2 DUP2 MSTORE PUSH1 0x20 ADD DUP3 DUP1 SLOAD PUSH2 0x676 SWAP1 PUSH2 0x1680 JUMP JUMPDEST DUP1 ISZERO PUSH2 0x6C3 JUMPI DUP1 PUSH1 0x1F LT PUSH2 0x698 JUMPI PUSH2 0x100 DUP1 DUP4 SLOAD DIV MUL DUP4 MSTORE SWAP2 PUSH1 0x20 ADD SWAP2 PUSH2 0x6C3 JUMP JUMPDEST DUP3 ADD SWAP2 SWAP1 PUSH1 0x0 MSTORE PUSH1 0x20 PUSH1 0x0 KECCAK256 SWAP1 JUMPDEST DUP2 SLOAD DUP2 MSTORE SWAP1 PUSH1 0x1 ADD SWAP1 PUSH1 0x20 ADD DUP1 DUP4 GT PUSH2 0x6A6 JUMPI DUP3 SWAP1 SUB PUSH1 0x1F AND DUP3 ADD SWAP2 JUMPDEST POP POP POP POP POP SWAP1 DUP1 PUSH1 0x2 ADD DUP1 SLOAD PUSH2 0x6D8 SWAP1 PUSH2 0x1680 JUMP JUMPDEST DUP1 PUSH1 0x1F ADD PUSH1 0x20 DUP1 SWAP2 DIV MUL PUSH1 0x20 ADD PUSH1 0x40 MLOAD SWAP1 DUP2 ADD PUSH1 0x40 MSTORE DUP1 SWAP3 SWAP2 SWAP1 DUP2 DUP2 MSTORE PUSH1 0x20 ADD DUP3 DUP1 SLOAD PUSH2 0x704 SWAP1 PUSH2 0x1680 JUMP JUMPDEST DUP1 ISZERO PUSH2 0x751 JUMPI DUP1 PUSH1 0x1F LT PUSH2 0x726 JUMPI PUSH2 0x100 DUP1 DUP4 SLOAD DIV MUL DUP4 MSTORE SWAP2 PUSH1 0x20 ADD SWAP2 PUSH2 0x751 JUMP JUMPDEST DUP3 ADD SWAP2 SWAP1 PUSH1 0x0 MSTORE PUSH1 0x20 PUSH1 0x0 KECCAK256 SWAP1 JUMPDEST DUP2 SLOAD DUP2 MSTORE SWAP1 PUSH1 0x1 ADD SWAP1 PUSH1 0x20 ADD DUP1 DUP4 GT PUSH2 0x734 JUMPI DUP3 SWAP1 SUB PUSH1 0x1F AND DUP3 ADD SWAP2 JUMPDEST POP POP POP POP POP SWAP1 DUP1 PUSH1 0x3 ADD PUSH1 0x0 SWAP1 SLOAD SWAP1 PUSH2 0x100 EXP SWAP1 DIV PUSH2 0xFFFF AND SWAP1 DUP1 PUSH1 0x3 ADD PUSH1 0x2 SWAP1 SLOAD SWAP1 PUSH2 0x100 EXP SWAP1 DIV PUSH20 0xFFFFFFFFFFFFFFFFFFFFFFFFFFFFFFFFFFFFFFFF AND SWAP1 POP DUP5 JUMP JUMPDEST PUSH1 0x0 PUSH1 0x40 MLOAD DUP1 PUSH1 0xA0 ADD PUSH1 0x40 MSTORE DUP1 DUP8 DUP8 DUP1 DUP1 PUSH1 0x1F ADD PUSH1 0x20 DUP1 SWAP2 DIV MUL PUSH1 0x20 ADD PUSH1 0x40 MLOAD SWAP1 DUP2 ADD PUSH1 0x40 MSTORE DUP1 SWAP4 SWAP3 SWAP2 SWAP1 DUP2 DUP2 MSTORE PUSH1 0x20 ADD DUP4 DUP4 DUP1 DUP3 DUP5 CALLDATACOPY PUSH1 0x0 DUP2 DUP5 ADD MSTORE PUSH1 0x1F NOT PUSH1 0x1F DUP3 ADD AND SWAP1 POP DUP1 DUP4 ADD SWAP3 POP POP POP POP POP POP POP DUP2 MSTORE PUSH1 0x20 ADD PUSH1 0x0 PUSH8 0xFFFFFFFFFFFFFFFF DUP2 GT ISZERO PUSH2 0x807 JUMPI PUSH2 0x806 PUSH2 0xE02 JUMP JUMPDEST JUMPDEST PUSH1 0x40 MLOAD SWAP1 DUP1 DUP3 MSTORE DUP1 PUSH1 0x20 MUL PUSH1 0x20 ADD DUP3 ADD PUSH1 0x40 MSTORE DUP1 ISZERO PUSH2 0x835 JUMPI DUP2 PUSH1 0x20 ADD PUSH1 0x20 DUP3 MUL DUP1 CALLDATASIZE DUP4 CALLDATACOPY DUP1 DUP3 ADD SWAP2 POP POP SWAP1 POP JUMPDEST POP DUP2 MSTORE PUSH1 0x20 ADD DUP6 DUP6 DUP1 DUP1 PUSH1 0x1F ADD PUSH1 0x20 DUP1 SWAP2 DIV MUL PUSH1 0x20 ADD PUSH1 0x40 MLOAD SWAP1 DUP2 ADD PUSH1 0x40 MSTORE DUP1 SWAP4 SWAP3 SWAP2 SWAP1 DUP2 DUP2 MSTORE PUSH1 0x20 ADD DUP4 DUP4 DUP1 DUP3 DUP5 CALLDATACOPY PUSH1 0x0 DUP2 DUP5 ADD MSTORE PUSH1 0x1F NOT PUSH1 0x1F DUP3 ADD AND SWAP1 POP DUP1 DUP4 ADD SWAP3 POP POP POP POP POP POP POP DUP2 MSTORE PUSH1 0x20 ADD DUP4 PUSH2 0xFFFF AND DUP2 MSTORE PUSH1 0x20 ADD CALLER PUSH20 0xFFFFFFFFFFFFFFFFFFFFFFFFFFFFFFFFFFFFFFFF AND DUP2 MSTORE POP SWAP1 POP DUP1 PUSH1 0x0 DUP1 CALLER PUSH20 0xFFFFFFFFFFFFFFFFFFFFFFFFFFFFFFFFFFFFFFFF AND PUSH20 0xFFFFFFFFFFFFFFFFFFFFFFFFFFFFFFFFFFFFFFFF AND DUP2 MSTORE PUSH1 0x20 ADD SWAP1 DUP2 MSTORE PUSH1 0x20 ADD PUSH1 0x0 KECCAK256 PUSH1 0x0 DUP3 ADD MLOAD DUP2 PUSH1 0x0 ADD SWAP1 DUP2 PUSH2 0x8FF SWAP2 SWAP1 PUSH2 0x1867 JUMP JUMPDEST POP PUSH1 0x20 DUP3 ADD MLOAD DUP2 PUSH1 0x1 ADD SWAP1 DUP1 MLOAD SWAP1 PUSH1 0x20 ADD SWAP1 PUSH2 0x91C SWAP3 SWAP2 SWAP1 PUSH2 0xD27 JUMP JUMPDEST POP PUSH1 0x40 DUP3 ADD MLOAD DUP2 PUSH1 0x2 ADD SWAP1 DUP2 PUSH2 0x932 SWAP2 SWAP1 PUSH2 0x1867 JUMP JUMPDEST POP PUSH1 0x60 DUP3 ADD MLOAD DUP2 PUSH1 0x3 ADD PUSH1 0x0 PUSH2 0x100 EXP DUP2 SLOAD DUP2 PUSH2 0xFFFF MUL NOT AND SWAP1 DUP4 PUSH2 0xFFFF AND MUL OR SWAP1 SSTORE POP PUSH1 0x80 DUP3 ADD MLOAD DUP2 PUSH1 0x3 ADD PUSH1 0x2 PUSH2 0x100 EXP DUP2 SLOAD DUP2 PUSH20 0xFFFFFFFFFFFFFFFFFFFFFFFFFFFFFFFFFFFFFFFF MUL NOT AND SWAP1 DUP4 PUSH20 0xFFFFFFFFFFFFFFFFFFFFFFFFFFFFFFFFFFFFFFFF AND MUL OR SWAP1 SSTORE POP SWAP1 POP POP PUSH1 0x1 CALLER SWAP1 DUP1 PUSH1 0x1 DUP2 SLOAD ADD DUP1 DUP3 SSTORE DUP1 SWAP2 POP POP PUSH1 0x1 SWAP1 SUB SWAP1 PUSH1 0x0 MSTORE PUSH1 0x20 PUSH1 0x0 KECCAK256 ADD PUSH1 0x0 SWAP1 SWAP2 SWAP1 SWAP2 SWAP1 SWAP2 PUSH2 0x100 EXP DUP2 SLOAD DUP2 PUSH20 0xFFFFFFFFFFFFFFFFFFFFFFFFFFFFFFFFFFFFFFFF MUL NOT AND SWAP1 DUP4 PUSH20 0xFFFFFFFFFFFFFFFFFFFFFFFFFFFFFFFFFFFFFFFF AND MUL OR SWAP1 SSTORE POP PUSH2 0xA14 DUP2 PUSH1 0x60 ADD MLOAD PUSH2 0xFFFF AND PUSH2 0xB9E JUMP JUMPDEST POP POP POP POP POP POP JUMP JUMPDEST PUSH1 0x0 DUP1 DUP3 PUSH20 0xFFFFFFFFFFFFFFFFFFFFFFFFFFFFFFFFFFFFFFFF AND PUSH20 0xFFFFFFFFFFFFFFFFFFFFFFFFFFFFFFFFFFFFFFFF AND DUP2 MSTORE PUSH1 0x20 ADD SWAP1 DUP2 MSTORE PUSH1 0x20 ADD PUSH1 0x0 KECCAK256 PUSH1 0x3 ADD PUSH1 0x0 SWAP1 SLOAD SWAP1 PUSH2 0x100 EXP SWAP1 DIV PUSH2 0xFFFF AND PUSH2 0xFFFF AND CALLVALUE LT ISZERO PUSH2 0xAB2 JUMPI PUSH1 0x40 MLOAD PUSH32 0x8C379A000000000000000000000000000000000000000000000000000000000 DUP2 MSTORE PUSH1 0x4 ADD PUSH2 0xAA9 SWAP1 PUSH2 0x1A0D JUMP JUMPDEST PUSH1 0x40 MLOAD DUP1 SWAP2 SUB SWAP1 REVERT JUMPDEST PUSH1 0x0 DUP1 DUP3 PUSH20 0xFFFFFFFFFFFFFFFFFFFFFFFFFFFFFFFFFFFFFFFF AND PUSH20 0xFFFFFFFFFFFFFFFFFFFFFFFFFFFFFFFFFFFFFFFF AND DUP2 MSTORE PUSH1 0x20 ADD SWAP1 DUP2 MSTORE PUSH1 0x20 ADD PUSH1 0x0 KECCAK256 PUSH1 0x1 ADD CALLER SWAP1 DUP1 PUSH1 0x1 DUP2 SLOAD ADD DUP1 DUP3 SSTORE DUP1 SWAP2 POP POP PUSH1 0x1 SWAP1 SUB SWAP1 PUSH1 0x0 MSTORE PUSH1 0x20 PUSH1 0x0 KECCAK256 ADD PUSH1 0x0 SWAP1 SWAP2 SWAP1 SWAP2 SWAP1 SWAP2 PUSH2 0x100 EXP DUP2 SLOAD DUP2 PUSH20 0xFFFFFFFFFFFFFFFFFFFFFFFFFFFFFFFFFFFFFFFF MUL NOT AND SWAP1 DUP4 PUSH20 0xFFFFFFFFFFFFFFFFFFFFFFFFFFFFFFFFFFFFFFFF AND MUL OR SWAP1 SSTORE POP DUP1 PUSH20 0xFFFFFFFFFFFFFFFFFFFFFFFFFFFFFFFFFFFFFFFF AND PUSH2 0x8FC CALLVALUE SWAP1 DUP2 ISZERO MUL SWAP1 PUSH1 0x40 MLOAD PUSH1 0x0 PUSH1 0x40 MLOAD DUP1 DUP4 SUB DUP2 DUP6 DUP9 DUP9 CALL SWAP4 POP POP POP POP ISZERO DUP1 ISZERO PUSH2 0xB9A JUMPI RETURNDATASIZE PUSH1 0x0 DUP1 RETURNDATACOPY RETURNDATASIZE PUSH1 0x0 REVERT JUMPDEST POP POP JUMP JUMPDEST PUSH2 0xC34 DUP2 PUSH1 0x40 MLOAD PUSH1 0x24 ADD PUSH2 0xBB2 SWAP2 SWAP1 PUSH2 0x1A3C JUMP JUMPDEST PUSH1 0x40 MLOAD PUSH1 0x20 DUP2 DUP4 SUB SUB DUP2 MSTORE SWAP1 PUSH1 0x40 MSTORE PUSH32 0xF82C50F100000000000000000000000000000000000000000000000000000000 PUSH28 0xFFFFFFFFFFFFFFFFFFFFFFFFFFFFFFFFFFFFFFFFFFFFFFFFFFFFFFFF NOT AND PUSH1 0x20 DUP3 ADD DUP1 MLOAD PUSH28 0xFFFFFFFFFFFFFFFFFFFFFFFFFFFFFFFFFFFFFFFFFFFFFFFFFFFFFFFF DUP4 DUP2 DUP4 AND OR DUP4 MSTORE POP POP POP POP PUSH2 0xC37 JUMP JUMPDEST POP JUMP JUMPDEST PUSH2 0xC4E DUP2 PUSH2 0xC46 PUSH2 0xC51 PUSH2 0xC72 JUMP JUMPDEST PUSH4 0xFFFFFFFF AND JUMP JUMPDEST POP JUMP JUMPDEST PUSH1 0x0 PUSH11 0x636F6E736F6C652E6C6F67 SWAP1 POP PUSH1 0x0 DUP1 DUP4 MLOAD PUSH1 0x20 DUP6 ADD DUP5 GAS STATICCALL POP POP POP JUMP JUMPDEST PUSH2 0xDB1 DUP2 SWAP1 POP SWAP2 SWAP1 POP JUMP JUMPDEST PUSH1 0x40 MLOAD DUP1 PUSH1 0xA0 ADD PUSH1 0x40 MSTORE DUP1 PUSH1 0x60 DUP2 MSTORE PUSH1 0x20 ADD PUSH1 0x60 DUP2 MSTORE PUSH1 0x20 ADD PUSH1 0x60 DUP2 MSTORE PUSH1 0x20 ADD PUSH1 0x0 PUSH2 0xFFFF AND DUP2 MSTORE PUSH1 0x20 ADD PUSH1 0x0 PUSH20 0xFFFFFFFFFFFFFFFFFFFFFFFFFFFFFFFFFFFFFFFF AND DUP2 MSTORE POP SWAP1 JUMP JUMPDEST POP DUP1 SLOAD PUSH2 0xCD2 SWAP1 PUSH2 0x1680 JUMP JUMPDEST PUSH1 0x0 DUP3 SSTORE DUP1 PUSH1 0x1F LT PUSH2 0xCE4 JUMPI POP PUSH2 0xD03 JUMP JUMPDEST PUSH1 0x1F ADD PUSH1 0x20 SWAP1 DIV SWAP1 PUSH1 0x0 MSTORE PUSH1 0x20 PUSH1 0x0 KECCAK256 SWAP1 DUP2 ADD SWAP1 PUSH2 0xD02 SWAP2 SWAP1 PUSH2 0xDBB JUMP JUMPDEST JUMPDEST POP JUMP JUMPDEST POP DUP1 SLOAD PUSH1 0x0 DUP3 SSTORE SWAP1 PUSH1 0x0 MSTORE PUSH1 0x20 PUSH1 0x0 KECCAK256 SWAP1 DUP2 ADD SWAP1 PUSH2 0xD24 SWAP2 SWAP1 PUSH2 0xDBB JUMP JUMPDEST POP JUMP JUMPDEST DUP3 DUP1 SLOAD DUP3 DUP3 SSTORE SWAP1 PUSH1 0x0 MSTORE PUSH1 0x20 PUSH1 0x0 KECCAK256 SWAP1 DUP2 ADD SWAP3 DUP3 ISZERO PUSH2 0xDA0 JUMPI SWAP2 PUSH1 0x20 MUL DUP3 ADD JUMPDEST DUP3 DUP2 GT ISZERO PUSH2 0xD9F JUMPI DUP3 MLOAD DUP3 PUSH1 0x0 PUSH2 0x100 EXP DUP2 SLOAD DUP2 PUSH20 0xFFFFFFFFFFFFFFFFFFFFFFFFFFFFFFFFFFFFFFFF MUL NOT AND SWAP1 DUP4 PUSH20 0xFFFFFFFFFFFFFFFFFFFFFFFFFFFFFFFFFFFFFFFF AND MUL OR SWAP1 SSTORE POP SWAP2 PUSH1 0x20 ADD SWAP2 SWAP1 PUSH1 0x1 ADD SWAP1 PUSH2 0xD47 JUMP JUMPDEST JUMPDEST POP SWAP1 POP PUSH2 0xDAD SWAP2 SWAP1 PUSH2 0xDBB JUMP JUMPDEST POP SWAP1 JUMP JUMPDEST PUSH2 0xDB9 PUSH2 0x1A57 JUMP JUMPDEST JUMP JUMPDEST JUMPDEST DUP1 DUP3 GT ISZERO PUSH2 0xDD4 JUMPI PUSH1 0x0 DUP2 PUSH1 0x0 SWAP1 SSTORE POP PUSH1 0x1 ADD PUSH2 0xDBC JUMP JUMPDEST POP SWAP1 JUMP JUMPDEST PUSH1 0x0 PUSH1 0x40 MLOAD SWAP1 POP SWAP1 JUMP JUMPDEST PUSH1 0x0 DUP1 REVERT JUMPDEST PUSH1 0x0 DUP1 REVERT JUMPDEST PUSH1 0x0 DUP1 REVERT JUMPDEST PUSH1 0x0 PUSH1 0x1F NOT PUSH1 0x1F DUP4 ADD AND SWAP1 POP SWAP2 SWAP1 POP JUMP JUMPDEST PUSH32 0x4E487B7100000000000000000000000000000000000000000000000000000000 PUSH1 0x0 MSTORE PUSH1 0x41 PUSH1 0x4 MSTORE PUSH1 0x24 PUSH1 0x0 REVERT JUMPDEST PUSH2 0xE3A DUP3 PUSH2 0xDF1 JUMP JUMPDEST DUP2 ADD DUP2 DUP2 LT PUSH8 0xFFFFFFFFFFFFFFFF DUP3 GT OR ISZERO PUSH2 0xE59 JUMPI PUSH2 0xE58 PUSH2 0xE02 JUMP JUMPDEST JUMPDEST DUP1 PUSH1 0x40 MSTORE POP POP POP JUMP JUMPDEST PUSH1 0x0 PUSH2 0xE6C PUSH2 0xDD8 JUMP JUMPDEST SWAP1 POP PUSH2 0xE78 DUP3 DUP3 PUSH2 0xE31 JUMP JUMPDEST SWAP2 SWAP1 POP JUMP JUMPDEST PUSH1 0x0 DUP1 REVERT JUMPDEST PUSH1 0x0 DUP1 REVERT JUMPDEST PUSH1 0x0 DUP1 REVERT JUMPDEST PUSH1 0x0 PUSH8 0xFFFFFFFFFFFFFFFF DUP3 GT ISZERO PUSH2 0xEA7 JUMPI PUSH2 0xEA6 PUSH2 0xE02 JUMP JUMPDEST JUMPDEST PUSH2 0xEB0 DUP3 PUSH2 0xDF1 JUMP JUMPDEST SWAP1 POP PUSH1 0x20 DUP2 ADD SWAP1 POP SWAP2 SWAP1 POP JUMP JUMPDEST DUP3 DUP2 DUP4 CALLDATACOPY PUSH1 0x0 DUP4 DUP4 ADD MSTORE POP POP POP JUMP JUMPDEST PUSH1 0x0 PUSH2 0xEDF PUSH2 0xEDA DUP5 PUSH2 0xE8C JUMP JUMPDEST PUSH2 0xE62 JUMP JUMPDEST SWAP1 POP DUP3 DUP2 MSTORE PUSH1 0x20 DUP2 ADD DUP5 DUP5 DUP5 ADD GT ISZERO PUSH2 0xEFB JUMPI PUSH2 0xEFA PUSH2 0xE87 JUMP JUMPDEST JUMPDEST PUSH2 0xF06 DUP5 DUP3 DUP6 PUSH2 0xEBD JUMP JUMPDEST POP SWAP4 SWAP3 POP POP POP JUMP JUMPDEST PUSH1 0x0 DUP3 PUSH1 0x1F DUP4 ADD SLT PUSH2 0xF23 JUMPI PUSH2 0xF22 PUSH2 0xE82 JUMP JUMPDEST JUMPDEST DUP2 CALLDATALOAD PUSH2 0xF33 DUP5 DUP3 PUSH1 0x20 DUP7 ADD PUSH2 0xECC JUMP JUMPDEST SWAP2 POP POP SWAP3 SWAP2 POP POP JUMP JUMPDEST PUSH1 0x0 PUSH8 0xFFFFFFFFFFFFFFFF DUP3 GT ISZERO PUSH2 0xF57 JUMPI PUSH2 0xF56 PUSH2 0xE02 JUMP JUMPDEST JUMPDEST PUSH1 0x20 DUP3 MUL SWAP1 POP PUSH1 0x20 DUP2 ADD SWAP1 POP SWAP2 SWAP1 POP JUMP JUMPDEST PUSH1 0x0 DUP1 REVERT JUMPDEST PUSH1 0x0 PUSH20 0xFFFFFFFFFFFFFFFFFFFFFFFFFFFFFFFFFFFFFFFF DUP3 AND SWAP1 POP SWAP2 SWAP1 POP JUMP JUMPDEST PUSH1 0x0 PUSH2 0xF98 DUP3 PUSH2 0xF6D JUMP JUMPDEST SWAP1 POP SWAP2 SWAP1 POP JUMP JUMPDEST PUSH2 0xFA8 DUP2 PUSH2 0xF8D JUMP JUMPDEST DUP2 EQ PUSH2 0xFB3 JUMPI PUSH1 0x0 DUP1 REVERT JUMPDEST POP JUMP JUMPDEST PUSH1 0x0 DUP2 CALLDATALOAD SWAP1 POP PUSH2 0xFC5 DUP2 PUSH2 0xF9F JUMP JUMPDEST SWAP3 SWAP2 POP POP JUMP JUMPDEST PUSH1 0x0 PUSH2 0xFDE PUSH2 0xFD9 DUP5 PUSH2 0xF3C JUMP JUMPDEST PUSH2 0xE62 JUMP JUMPDEST SWAP1 POP DUP1 DUP4 DUP3 MSTORE PUSH1 0x20 DUP3 ADD SWAP1 POP PUSH1 0x20 DUP5 MUL DUP4 ADD DUP6 DUP2 GT ISZERO PUSH2 0x1001 JUMPI PUSH2 0x1000 PUSH2 0xF68 JUMP JUMPDEST JUMPDEST DUP4 JUMPDEST DUP2 DUP2 LT ISZERO PUSH2 0x102A JUMPI DUP1 PUSH2 0x1016 DUP9 DUP3 PUSH2 0xFB6 JUMP JUMPDEST DUP5 MSTORE PUSH1 0x20 DUP5 ADD SWAP4 POP POP PUSH1 0x20 DUP2 ADD SWAP1 POP PUSH2 0x1003 JUMP JUMPDEST POP POP POP SWAP4 SWAP3 POP POP POP JUMP JUMPDEST PUSH1 0x0 DUP3 PUSH1 0x1F DUP4 ADD SLT PUSH2 0x1049 JUMPI PUSH2 0x1048 PUSH2 0xE82 JUMP JUMPDEST JUMPDEST DUP2 CALLDATALOAD PUSH2 0x1059 DUP5 DUP3 PUSH1 0x20 DUP7 ADD PUSH2 0xFCB JUMP JUMPDEST SWAP2 POP POP SWAP3 SWAP2 POP POP JUMP JUMPDEST PUSH1 0x0 PUSH2 0xFFFF DUP3 AND SWAP1 POP SWAP2 SWAP1 POP JUMP JUMPDEST PUSH2 0x1079 DUP2 PUSH2 0x1062 JUMP JUMPDEST DUP2 EQ PUSH2 0x1084 JUMPI PUSH1 0x0 DUP1 REVERT JUMPDEST POP JUMP JUMPDEST PUSH1 0x0 DUP2 CALLDATALOAD SWAP1 POP PUSH2 0x1096 DUP2 PUSH2 0x1070 JUMP JUMPDEST SWAP3 SWAP2 POP POP JUMP JUMPDEST PUSH1 0x0 PUSH1 0xA0 DUP3 DUP5 SUB SLT ISZERO PUSH2 0x10B2 JUMPI PUSH2 0x10B1 PUSH2 0xDEC JUMP JUMPDEST JUMPDEST PUSH2 0x10BC PUSH1 0xA0 PUSH2 0xE62 JUMP JUMPDEST SWAP1 POP PUSH1 0x0 DUP3 ADD CALLDATALOAD PUSH8 0xFFFFFFFFFFFFFFFF DUP2 GT ISZERO PUSH2 0x10DC JUMPI PUSH2 0x10DB PUSH2 0xE7D JUMP JUMPDEST JUMPDEST PUSH2 0x10E8 DUP5 DUP3 DUP6 ADD PUSH2 0xF0E JUMP JUMPDEST PUSH1 0x0 DUP4 ADD MSTORE POP PUSH1 0x20 DUP3 ADD CALLDATALOAD PUSH8 0xFFFFFFFFFFFFFFFF DUP2 GT ISZERO PUSH2 0x110C JUMPI PUSH2 0x110B PUSH2 0xE7D JUMP JUMPDEST JUMPDEST PUSH2 0x1118 DUP5 DUP3 DUP6 ADD PUSH2 0x1034 JUMP JUMPDEST PUSH1 0x20 DUP4 ADD MSTORE POP PUSH1 0x40 DUP3 ADD CALLDATALOAD PUSH8 0xFFFFFFFFFFFFFFFF DUP2 GT ISZERO PUSH2 0x113C JUMPI PUSH2 0x113B PUSH2 0xE7D JUMP JUMPDEST JUMPDEST PUSH2 0x1148 DUP5 DUP3 DUP6 ADD PUSH2 0xF0E JUMP JUMPDEST PUSH1 0x40 DUP4 ADD MSTORE POP PUSH1 0x60 PUSH2 0x115C DUP5 DUP3 DUP6 ADD PUSH2 0x1087 JUMP JUMPDEST PUSH1 0x60 DUP4 ADD MSTORE POP PUSH1 0x80 PUSH2 0x1170 DUP5 DUP3 DUP6 ADD PUSH2 0xFB6 JUMP JUMPDEST PUSH1 0x80 DUP4 ADD MSTORE POP SWAP3 SWAP2 POP POP JUMP JUMPDEST PUSH1 0x0 PUSH1 0x20 DUP3 DUP5 SUB SLT ISZERO PUSH2 0x1192 JUMPI PUSH2 0x1191 PUSH2 0xDE2 JUMP JUMPDEST JUMPDEST PUSH1 0x0 DUP3 ADD CALLDATALOAD PUSH8 0xFFFFFFFFFFFFFFFF DUP2 GT ISZERO PUSH2 0x11B0 JUMPI PUSH2 0x11AF PUSH2 0xDE7 JUMP JUMPDEST JUMPDEST PUSH2 0x11BC DUP5 DUP3 DUP6 ADD PUSH2 0x109C JUMP JUMPDEST SWAP2 POP POP SWAP3 SWAP2 POP POP JUMP JUMPDEST PUSH1 0x0 DUP2 MLOAD SWAP1 POP SWAP2 SWAP1 POP JUMP JUMPDEST PUSH1 0x0 DUP3 DUP3 MSTORE PUSH1 0x20 DUP3 ADD SWAP1 POP SWAP3 SWAP2 POP POP JUMP JUMPDEST PUSH1 0x0 DUP2 SWAP1 POP PUSH1 0x20 DUP3 ADD SWAP1 POP SWAP2 SWAP1 POP JUMP JUMPDEST PUSH1 0x0 DUP2 MLOAD SWAP1 POP SWAP2 SWAP1 POP JUMP JUMPDEST PUSH1 0x0 DUP3 DUP3 MSTORE PUSH1 0x20 DUP3 ADD SWAP1 POP SWAP3 SWAP2 POP POP JUMP JUMPDEST PUSH1 0x0 JUMPDEST DUP4 DUP2 LT ISZERO PUSH2 0x122B JUMPI DUP1 DUP3 ADD MLOAD DUP2 DUP5 ADD MSTORE PUSH1 0x20 DUP2 ADD SWAP1 POP PUSH2 0x1210 JUMP JUMPDEST PUSH1 0x0 DUP5 DUP5 ADD MSTORE POP POP POP POP JUMP JUMPDEST PUSH1 0x0 PUSH2 0x1242 DUP3 PUSH2 0x11F1 JUMP JUMPDEST PUSH2 0x124C DUP2 DUP6 PUSH2 0x11FC JUMP JUMPDEST SWAP4 POP PUSH2 0x125C DUP2 DUP6 PUSH1 0x20 DUP7 ADD PUSH2 0x120D JUMP JUMPDEST PUSH2 0x1265 DUP2 PUSH2 0xDF1 JUMP JUMPDEST DUP5 ADD SWAP2 POP POP SWAP3 SWAP2 POP POP JUMP JUMPDEST PUSH1 0x0 DUP2 MLOAD SWAP1 POP SWAP2 SWAP1 POP JUMP JUMPDEST PUSH1 0x0 DUP3 DUP3 MSTORE PUSH1 0x20 DUP3 ADD SWAP1 POP SWAP3 SWAP2 POP POP JUMP JUMPDEST PUSH1 0x0 DUP2 SWAP1 POP PUSH1 0x20 DUP3 ADD SWAP1 POP SWAP2 SWAP1 POP JUMP JUMPDEST PUSH2 0x12A5 DUP2 PUSH2 0xF8D JUMP JUMPDEST DUP3 MSTORE POP POP JUMP JUMPDEST PUSH1 0x0 PUSH2 0x12B7 DUP4 DUP4 PUSH2 0x129C JUMP JUMPDEST PUSH1 0x20 DUP4 ADD SWAP1 POP SWAP3 SWAP2 POP POP JUMP JUMPDEST PUSH1 0x0 PUSH1 0x20 DUP3 ADD SWAP1 POP SWAP2 SWAP1 POP JUMP JUMPDEST PUSH1 0x0 PUSH2 0x12DB DUP3 PUSH2 0x1270 JUMP JUMPDEST PUSH2 0x12E5 DUP2 DUP6 PUSH2 0x127B JUMP JUMPDEST SWAP4 POP PUSH2 0x12F0 DUP4 PUSH2 0x128C JUMP JUMPDEST DUP1 PUSH1 0x0 JUMPDEST DUP4 DUP2 LT ISZERO PUSH2 0x1321 JUMPI DUP2 MLOAD PUSH2 0x1308 DUP9 DUP3 PUSH2 0x12AB JUMP JUMPDEST SWAP8 POP PUSH2 0x1313 DUP4 PUSH2 0x12C3 JUMP JUMPDEST SWAP3 POP POP PUSH1 0x1 DUP2 ADD SWAP1 POP PUSH2 0x12F4 JUMP JUMPDEST POP DUP6 SWAP4 POP POP POP POP SWAP3 SWAP2 POP POP JUMP JUMPDEST PUSH2 0x1337 DUP2 PUSH2 0x1062 JUMP JUMPDEST DUP3 MSTORE POP POP JUMP JUMPDEST PUSH1 0x0 PUSH1 0xA0 DUP4 ADD PUSH1 0x0 DUP4 ADD MLOAD DUP5 DUP3 SUB PUSH1 0x0 DUP7 ADD MSTORE PUSH2 0x135A DUP3 DUP3 PUSH2 0x1237 JUMP JUMPDEST SWAP2 POP POP PUSH1 0x20 DUP4 ADD MLOAD DUP5 DUP3 SUB PUSH1 0x20 DUP7 ADD MSTORE PUSH2 0x1374 DUP3 DUP3 PUSH2 0x12D0 JUMP JUMPDEST SWAP2 POP POP PUSH1 0x40 DUP4 ADD MLOAD DUP5 DUP3 SUB PUSH1 0x40 DUP7 ADD MSTORE PUSH2 0x138E DUP3 DUP3 PUSH2 0x1237 JUMP JUMPDEST SWAP2 POP POP PUSH1 0x60 DUP4 ADD MLOAD PUSH2 0x13A3 PUSH1 0x60 DUP7 ADD DUP3 PUSH2 0x132E JUMP JUMPDEST POP PUSH1 0x80 DUP4 ADD MLOAD PUSH2 0x13B6 PUSH1 0x80 DUP7 ADD DUP3 PUSH2 0x129C JUMP JUMPDEST POP DUP1 SWAP2 POP POP SWAP3 SWAP2 POP POP JUMP JUMPDEST PUSH1 0x0 PUSH2 0x13CD DUP4 DUP4 PUSH2 0x133D JUMP JUMPDEST SWAP1 POP SWAP3 SWAP2 POP POP JUMP JUMPDEST PUSH1 0x0 PUSH1 0x20 DUP3 ADD SWAP1 POP SWAP2 SWAP1 POP JUMP JUMPDEST PUSH1 0x0 PUSH2 0x13ED DUP3 PUSH2 0x11C5 JUMP JUMPDEST PUSH2 0x13F7 DUP2 DUP6 PUSH2 0x11D0 JUMP JUMPDEST SWAP4 POP DUP4 PUSH1 0x20 DUP3 MUL DUP6 ADD PUSH2 0x1409 DUP6 PUSH2 0x11E1 JUMP JUMPDEST DUP1 PUSH1 0x0 JUMPDEST DUP6 DUP2 LT ISZERO PUSH2 0x1445 JUMPI DUP5 DUP5 SUB DUP10 MSTORE DUP2 MLOAD PUSH2 0x1426 DUP6 DUP3 PUSH2 0x13C1 JUMP JUMPDEST SWAP5 POP PUSH2 0x1431 DUP4 PUSH2 0x13D5 JUMP JUMPDEST SWAP3 POP PUSH1 0x20 DUP11 ADD SWAP10 POP POP PUSH1 0x1 DUP2 ADD SWAP1 POP PUSH2 0x140D JUMP JUMPDEST POP DUP3 SWAP8 POP DUP8 SWAP6 POP POP POP POP POP POP SWAP3 SWAP2 POP POP JUMP JUMPDEST PUSH1 0x0 PUSH1 0x20 DUP3 ADD SWAP1 POP DUP2 DUP2 SUB PUSH1 0x0 DUP4 ADD MSTORE PUSH2 0x1471 DUP2 DUP5 PUSH2 0x13E2 JUMP JUMPDEST SWAP1 POP SWAP3 SWAP2 POP POP JUMP JUMPDEST PUSH1 0x0 PUSH1 0x20 DUP3 DUP5 SUB SLT ISZERO PUSH2 0x148F JUMPI PUSH2 0x148E PUSH2 0xDE2 JUMP JUMPDEST JUMPDEST PUSH1 0x0 PUSH2 0x149D DUP5 DUP3 DUP6 ADD PUSH2 0xFB6 JUMP JUMPDEST SWAP2 POP POP SWAP3 SWAP2 POP POP JUMP JUMPDEST PUSH1 0x0 DUP3 DUP3 MSTORE PUSH1 0x20 DUP3 ADD SWAP1 POP SWAP3 SWAP2 POP POP JUMP JUMPDEST PUSH1 0x0 PUSH2 0x14C2 DUP3 PUSH2 0x11F1 JUMP JUMPDEST PUSH2 0x14CC DUP2 DUP6 PUSH2 0x14A6 JUMP JUMPDEST SWAP4 POP PUSH2 0x14DC DUP2 DUP6 PUSH1 0x20 DUP7 ADD PUSH2 0x120D JUMP JUMPDEST PUSH2 0x14E5 DUP2 PUSH2 0xDF1 JUMP JUMPDEST DUP5 ADD SWAP2 POP POP SWAP3 SWAP2 POP POP JUMP JUMPDEST PUSH2 0x14F9 DUP2 PUSH2 0x1062 JUMP JUMPDEST DUP3 MSTORE POP POP JUMP JUMPDEST PUSH2 0x1508 DUP2 PUSH2 0xF8D JUMP JUMPDEST DUP3 MSTORE POP POP JUMP JUMPDEST PUSH1 0x0 PUSH1 0x80 DUP3 ADD SWAP1 POP DUP2 DUP2 SUB PUSH1 0x0 DUP4 ADD MSTORE PUSH2 0x1528 DUP2 DUP8 PUSH2 0x14B7 JUMP JUMPDEST SWAP1 POP DUP2 DUP2 SUB PUSH1 0x20 DUP4 ADD MSTORE PUSH2 0x153C DUP2 DUP7 PUSH2 0x14B7 JUMP JUMPDEST SWAP1 POP PUSH2 0x154B PUSH1 0x40 DUP4 ADD DUP6 PUSH2 0x14F0 JUMP JUMPDEST PUSH2 0x1558 PUSH1 0x60 DUP4 ADD DUP5 PUSH2 0x14FF JUMP JUMPDEST SWAP6 SWAP5 POP POP POP POP POP JUMP JUMPDEST PUSH1 0x0 DUP1 REVERT JUMPDEST PUSH1 0x0 DUP1 DUP4 PUSH1 0x1F DUP5 ADD SLT PUSH2 0x157C JUMPI PUSH2 0x157B PUSH2 0xE82 JUMP JUMPDEST JUMPDEST DUP3 CALLDATALOAD SWAP1 POP PUSH8 0xFFFFFFFFFFFFFFFF DUP2 GT ISZERO PUSH2 0x1599 JUMPI PUSH2 0x1598 PUSH2 0x1561 JUMP JUMPDEST JUMPDEST PUSH1 0x20 DUP4 ADD SWAP2 POP DUP4 PUSH1 0x1 DUP3 MUL DUP4 ADD GT ISZERO PUSH2 0x15B5 JUMPI PUSH2 0x15B4 PUSH2 0xF68 JUMP JUMPDEST JUMPDEST SWAP3 POP SWAP3 SWAP1 POP JUMP JUMPDEST PUSH1 0x0 DUP1 PUSH1 0x0 DUP1 PUSH1 0x0 PUSH1 0x60 DUP7 DUP9 SUB SLT ISZERO PUSH2 0x15D8 JUMPI PUSH2 0x15D7 PUSH2 0xDE2 JUMP JUMPDEST JUMPDEST PUSH1 0x0 DUP7 ADD CALLDATALOAD PUSH8 0xFFFFFFFFFFFFFFFF DUP2 GT ISZERO PUSH2 0x15F6 JUMPI PUSH2 0x15F5 PUSH2 0xDE7 JUMP JUMPDEST JUMPDEST PUSH2 0x1602 DUP9 DUP3 DUP10 ADD PUSH2 0x1566 JUMP JUMPDEST SWAP6 POP SWAP6 POP POP PUSH1 0x20 DUP7 ADD CALLDATALOAD PUSH8 0xFFFFFFFFFFFFFFFF DUP2 GT ISZERO PUSH2 0x1625 JUMPI PUSH2 0x1624 PUSH2 0xDE7 JUMP JUMPDEST JUMPDEST PUSH2 0x1631 DUP9 DUP3 DUP10 ADD PUSH2 0x1566 JUMP JUMPDEST SWAP4 POP SWAP4 POP POP PUSH1 0x40 PUSH2 0x1644 DUP9 DUP3 DUP10 ADD PUSH2 0x1087 JUMP JUMPDEST SWAP2 POP POP SWAP3 SWAP6 POP SWAP3 SWAP6 SWAP1 SWAP4 POP JUMP JUMPDEST PUSH32 0x4E487B7100000000000000000000000000000000000000000000000000000000 PUSH1 0x0 MSTORE PUSH1 0x22 PUSH1 0x4 MSTORE PUSH1 0x24 PUSH1 0x0 REVERT JUMPDEST PUSH1 0x0 PUSH1 0x2 DUP3 DIV SWAP1 POP PUSH1 0x1 DUP3 AND DUP1 PUSH2 0x1698 JUMPI PUSH1 0x7F DUP3 AND SWAP2 POP JUMPDEST PUSH1 0x20 DUP3 LT DUP2 SUB PUSH2 0x16AB JUMPI PUSH2 0x16AA PUSH2 0x1651 JUMP JUMPDEST JUMPDEST POP SWAP2 SWAP1 POP JUMP JUMPDEST PUSH1 0x0 DUP2 SWAP1 POP DUP2 PUSH1 0x0 MSTORE PUSH1 0x20 PUSH1 0x0 KECCAK256 SWAP1 POP SWAP2 SWAP1 POP JUMP JUMPDEST PUSH1 0x0 PUSH1 0x20 PUSH1 0x1F DUP4 ADD DIV SWAP1 POP SWAP2 SWAP1 POP JUMP JUMPDEST PUSH1 0x0 DUP3 DUP3 SHL SWAP1 POP SWAP3 SWAP2 POP POP JUMP JUMPDEST PUSH1 0x0 PUSH1 0x8 DUP4 MUL PUSH2 0x1713 PUSH32 0xFFFFFFFFFFFFFFFFFFFFFFFFFFFFFFFFFFFFFFFFFFFFFFFFFFFFFFFFFFFFFFFF DUP3 PUSH2 0x16D6 JUMP JUMPDEST PUSH2 0x171D DUP7 DUP4 PUSH2 0x16D6 JUMP JUMPDEST SWAP6 POP DUP1 NOT DUP5 AND SWAP4 POP DUP1 DUP7 AND DUP5 OR SWAP3 POP POP POP SWAP4 SWAP3 POP POP POP JUMP JUMPDEST PUSH1 0x0 DUP2 SWAP1 POP SWAP2 SWAP1 POP JUMP JUMPDEST PUSH1 0x0 DUP2 SWAP1 POP SWAP2 SWAP1 POP JUMP JUMPDEST PUSH1 0x0 PUSH2 0x1764 PUSH2 0x175F PUSH2 0x175A DUP5 PUSH2 0x1735 JUMP JUMPDEST PUSH2 0x173F JUMP JUMPDEST PUSH2 0x1735 JUMP JUMPDEST SWAP1 POP SWAP2 SWAP1 POP JUMP JUMPDEST PUSH1 0x0 DUP2 SWAP1 POP SWAP2 SWAP1 POP JUMP JUMPDEST PUSH2 0x177E DUP4 PUSH2 0x1749 JUMP JUMPDEST PUSH2 0x1792 PUSH2 0x178A DUP3 PUSH2 0x176B JUMP JUMPDEST DUP5 DUP5 SLOAD PUSH2 0x16E3 JUMP JUMPDEST DUP3 SSTORE POP POP POP POP JUMP JUMPDEST PUSH1 0x0 SWAP1 JUMP JUMPDEST PUSH2 0x17A7 PUSH2 0x179A JUMP JUMPDEST PUSH2 0x17B2 DUP2 DUP5 DUP5 PUSH2 0x1775 JUMP JUMPDEST POP POP POP JUMP JUMPDEST JUMPDEST DUP2 DUP2 LT ISZERO PUSH2 0x17D6 JUMPI PUSH2 0x17CB PUSH1 0x0 DUP3 PUSH2 0x179F JUMP JUMPDEST PUSH1 0x1 DUP2 ADD SWAP1 POP PUSH2 0x17B8 JUMP JUMPDEST POP POP JUMP JUMPDEST PUSH1 0x1F DUP3 GT ISZERO PUSH2 0x181B JUMPI PUSH2 0x17EC DUP2 PUSH2 0x16B1 JUMP JUMPDEST PUSH2 0x17F5 DUP5 PUSH2 0x16C6 JUMP JUMPDEST DUP2 ADD PUSH1 0x20 DUP6 LT ISZERO PUSH2 0x1804 JUMPI DUP2 SWAP1 POP JUMPDEST PUSH2 0x1818 PUSH2 0x1810 DUP6 PUSH2 0x16C6 JUMP JUMPDEST DUP4 ADD DUP3 PUSH2 0x17B7 JUMP JUMPDEST POP POP JUMPDEST POP POP POP JUMP JUMPDEST PUSH1 0x0 DUP3 DUP3 SHR SWAP1 POP SWAP3 SWAP2 POP POP JUMP JUMPDEST PUSH1 0x0 PUSH2 0x183E PUSH1 0x0 NOT DUP5 PUSH1 0x8 MUL PUSH2 0x1820 JUMP JUMPDEST NOT DUP1 DUP4 AND SWAP2 POP POP SWAP3 SWAP2 POP POP JUMP JUMPDEST PUSH1 0x0 PUSH2 0x1857 DUP4 DUP4 PUSH2 0x182D JUMP JUMPDEST SWAP2 POP DUP3 PUSH1 0x2 MUL DUP3 OR SWAP1 POP SWAP3 SWAP2 POP POP JUMP JUMPDEST PUSH2 0x1870 DUP3 PUSH2 0x11F1 JUMP JUMPDEST PUSH8 0xFFFFFFFFFFFFFFFF DUP2 GT ISZERO PUSH2 0x1889 JUMPI PUSH2 0x1888 PUSH2 0xE02 JUMP JUMPDEST JUMPDEST PUSH2 0x1893 DUP3 SLOAD PUSH2 0x1680 JUMP JUMPDEST PUSH2 0x189E DUP3 DUP3 DUP6 PUSH2 0x17DA JUMP JUMPDEST PUSH1 0x0 PUSH1 0x20 SWAP1 POP PUSH1 0x1F DUP4 GT PUSH1 0x1 DUP2 EQ PUSH2 0x18D1 JUMPI PUSH1 0x0 DUP5 ISZERO PUSH2 0x18BF JUMPI DUP3 DUP8 ADD MLOAD SWAP1 POP JUMPDEST PUSH2 0x18C9 DUP6 DUP3 PUSH2 0x184B JUMP JUMPDEST DUP7 SSTORE POP PUSH2 0x1931 JUMP JUMPDEST PUSH1 0x1F NOT DUP5 AND PUSH2 0x18DF DUP7 PUSH2 0x16B1 JUMP JUMPDEST PUSH1 0x0 JUMPDEST DUP3 DUP2 LT ISZERO PUSH2 0x1907 JUMPI DUP5 DUP10 ADD MLOAD DUP3 SSTORE PUSH1 0x1 DUP3 ADD SWAP2 POP PUSH1 0x20 DUP6 ADD SWAP5 POP PUSH1 0x20 DUP2 ADD SWAP1 POP PUSH2 0x18E2 JUMP JUMPDEST DUP7 DUP4 LT ISZERO PUSH2 0x1924 JUMPI DUP5 DUP10 ADD MLOAD PUSH2 0x1920 PUSH1 0x1F DUP10 AND DUP3 PUSH2 0x182D JUMP JUMPDEST DUP4 SSTORE POP JUMPDEST PUSH1 0x1 PUSH1 0x2 DUP9 MUL ADD DUP9 SSTORE POP POP POP JUMPDEST POP POP POP POP POP POP JUMP JUMPDEST PUSH32 0x4E487B7100000000000000000000000000000000000000000000000000000000 PUSH1 0x0 MSTORE PUSH1 0x32 PUSH1 0x4 MSTORE PUSH1 0x24 PUSH1 0x0 REVERT JUMPDEST PUSH32 0x4E487B7100000000000000000000000000000000000000000000000000000000 PUSH1 0x0 MSTORE PUSH1 0x11 PUSH1 0x4 MSTORE PUSH1 0x24 PUSH1 0x0 REVERT JUMPDEST PUSH1 0x0 PUSH2 0x19A2 DUP3 PUSH2 0x1062 JUMP JUMPDEST SWAP2 POP PUSH2 0xFFFF DUP3 SUB PUSH2 0x19B6 JUMPI PUSH2 0x19B5 PUSH2 0x1968 JUMP JUMPDEST JUMPDEST PUSH1 0x1 DUP3 ADD SWAP1 POP SWAP2 SWAP1 POP JUMP JUMPDEST PUSH32 0x4E6F7420656E6F7567682066756E647320746F20707572636861736500000000 PUSH1 0x0 DUP3 ADD MSTORE POP JUMP JUMPDEST PUSH1 0x0 PUSH2 0x19F7 PUSH1 0x1C DUP4 PUSH2 0x14A6 JUMP JUMPDEST SWAP2 POP PUSH2 0x1A02 DUP3 PUSH2 0x19C1 JUMP JUMPDEST PUSH1 0x20 DUP3 ADD SWAP1 POP SWAP2 SWAP1 POP JUMP JUMPDEST PUSH1 0x0 PUSH1 0x20 DUP3 ADD SWAP1 POP DUP2 DUP2 SUB PUSH1 0x0 DUP4 ADD MSTORE PUSH2 0x1A26 DUP2 PUSH2 0x19EA JUMP JUMPDEST SWAP1 POP SWAP2 SWAP1 POP JUMP JUMPDEST PUSH2 0x1A36 DUP2 PUSH2 0x1735 JUMP JUMPDEST DUP3 MSTORE POP POP JUMP JUMPDEST PUSH1 0x0 PUSH1 0x20 DUP3 ADD SWAP1 POP PUSH2 0x1A51 PUSH1 0x0 DUP4 ADD DUP5 PUSH2 0x1A2D JUMP JUMPDEST SWAP3 SWAP2 POP POP JUMP JUMPDEST PUSH32 0x4E487B7100000000000000000000000000000000000000000000000000000000 PUSH1 0x0 MSTORE PUSH1 0x51 PUSH1 0x4 MSTORE PUSH1 0x24 PUSH1 0x0 REVERT INVALID LOG2 PUSH5 0x6970667358 0x22 SLT KECCAK256 MOD 0xCB 0x2D 0xA9 DUP5 0xDD MSTORE ADDMOD MULMOD DUP7 0xEF SWAP16 SDIV ADDMOD 0xEC DUP8 RETURNDATACOPY 0x2C 0xE4 DUP6 0xEA NOT 0xA7 0xDC 0xA5 LOG4 0xD5 SWAP10 PUSH18 0x90B68A64736F6C6343000818003300000000 "},"gasEstimates":{"creation":{"codeDepositCost":"1368800","executionCost":"1424","totalCost":"1370224"},"external":{"buy(address)":"infinite","genomeData(address)":"infinite","getData()":"infinite","retractData()":"infinite","updateData((string,address[],string,uint16,address))":"infinite","uploadData(string,string,uint16)":"infinite"}},"methodIdentifiers":{"buy(address)":"f088d547","genomeData(address)":"808731e8","getData()":"3bc5de30","retractData()":"590d33d6","updateData((string,address[],string,uint16,address))":"2af6d2a1","uploadData(string,string,uint16)":"c2881906"}},"storageLayout":{"storage":[{"astId":23,"contract":"contracts/DataStorage.sol:DataStorage","label":"genomeData","offset":0,"slot":"0","type":"t_mapping(t_address,t_struct(GenomeData)18_storage)"},{"astId":26,"contract":"contracts/DataStorage.sol:DataStorage","label":"users","offset":0,"slot":"1","type":"t_array(t_address)dyn_storage"}],"types":{"t_address":{"encoding":"inplace","label":"address","numberOfBytes":"20"},"t_array(t_address)dyn_storage":{"base":"t_address","encoding":"dynamic_array","label":"address[]","numberOfBytes":"32"},"t_mapping(t_address,t_struct(GenomeData)18_storage)":{"encoding":"mapping","key":"t_address","label":"mapping(address => struct DataStorage.GenomeData)","numberOfBytes":"32","value":"t_struct(GenomeData)18_storage"},"t_string_storage":{"encoding":"bytes","label":"string","numberOfBytes":"32"},"t_struct(GenomeData)18_storage":{"encoding":"inplace","label":"struct DataStorage.GenomeData","members":[{"astId":8,"contract":"contracts/DataStorage.sol:DataStorage","label":"encryptedData","offset":0,"slot":"0","type":"t_string_storage"},{"astId":11,"contract":"contracts/DataStorage.sol:DataStorage","label":"permittedAddresses","offset":0,"slot":"1","type":"t_array(t_address)dyn_storage"},{"astId":13,"contract":"contracts/DataStorage.sol:DataStorage","label":"typeOfData","offset":0,"slot":"2","type":"t_string_storage"},{"astId":15,"contract":"contracts/DataStorage.sol:DataStorage","label":"price","offset":0,"slot":"3","type":"t_uint16"},{"astId":17,"contract":"contracts/DataStorage.sol:DataStorage","label":"userAddress","offset":2,"slot":"3","type":"t_address"}],"numberOfBytes":"128"},"t_uint16":{"encoding":"inplace","label":"uint16","numberOfBytes":"2"}}},"userdoc":{"kind":"user","methods":{},"version":1}}}}