{
  "address": "0x5FbDB2315678afecb367f032d93F642f64180aa3",
  "abi": [
    {
      "inputs": [],
      "stateMutability": "nonpayable",
      "type": "constructor"
    },
    {
      "inputs": [
        {
          "internalType": "address",
          "name": "userAddress",
          "type": "address"
        }
      ],
      "name": "buy",
      "outputs": [],
      "stateMutability": "payable",
      "type": "function"
    },
    {
      "inputs": [
        {
          "internalType": "address",
          "name": "",
          "type": "address"
        }
      ],
      "name": "genomeData",
      "outputs": [
        {
          "internalType": "string",
          "name": "encryptedData",
          "type": "string"
        },
        {
          "internalType": "string",
          "name": "typeOfData",
          "type": "string"
        },
        {
          "internalType": "uint16",
          "name": "price",
          "type": "uint16"
        },
        {
          "internalType": "address",
          "name": "userAddress",
          "type": "address"
        }
      ],
      "stateMutability": "view",
      "type": "function"
    },
    {
      "inputs": [],
      "name": "getData",
      "outputs": [
        {
          "components": [
            {
              "internalType": "string",
              "name": "encryptedData",
              "type": "string"
            },
            {
              "internalType": "address[]",
              "name": "permittedAddresses",
              "type": "address[]"
            },
            {
              "internalType": "string",
              "name": "typeOfData",
              "type": "string"
            },
            {
              "internalType": "uint16",
              "name": "price",
              "type": "uint16"
            },
            {
              "internalType": "address",
              "name": "userAddress",
              "type": "address"
            }
          ],
          "internalType": "struct DataStorage.GenomeData[]",
          "name": "",
          "type": "tuple[]"
        }
      ],
      "stateMutability": "view",
      "type": "function"
    },
    {
      "inputs": [],
      "name": "retractData",
      "outputs": [],
      "stateMutability": "nonpayable",
      "type": "function"
    },
    {
      "inputs": [
        {
          "components": [
            {
              "internalType": "string",
              "name": "encryptedData",
              "type": "string"
            },
            {
              "internalType": "address[]",
              "name": "permittedAddresses",
              "type": "address[]"
            },
            {
              "internalType": "string",
              "name": "typeOfData",
              "type": "string"
            },
            {
              "internalType": "uint16",
              "name": "price",
              "type": "uint16"
            },
            {
              "internalType": "address",
              "name": "userAddress",
              "type": "address"
            }
          ],
          "internalType": "struct DataStorage.GenomeData",
          "name": "data",
          "type": "tuple"
        }
      ],
      "name": "updateData",
      "outputs": [],
      "stateMutability": "payable",
      "type": "function"
    },
    {
      "inputs": [
        {
          "internalType": "string",
          "name": "encryptedData",
          "type": "string"
        },
        {
          "internalType": "string",
          "name": "typeOfData",
          "type": "string"
        },
        {
          "internalType": "uint16",
          "name": "price",
          "type": "uint16"
        }
      ],
      "name": "uploadData",
      "outputs": [],
      "stateMutability": "nonpayable",
      "type": "function"
    }
  ],
  "transactionHash": "0x19c3e4954a4301c4dfb7ce781e8d0006787a4dd7f789fc1e9e05168dbded7c4b",
  "args": [],
  "numDeployments": 1,
  "solcInputHash": "e05830876b1bedc8edea53a786caf099",
  "bytecode": "0x608060405234801561001057600080fd5b50611abc806100206000396000f3fe6080604052600436106100555760003560e01c80632af6d2a11461005a5780633bc5de3014610076578063590d33d6146100a1578063808731e8146100b8578063c2881906146100f8578063f088d54714610121575b600080fd5b610074600480360381019061006f919061117c565b61013d565b005b34801561008257600080fd5b5061008b610215565b6040516100989190611457565b60405180910390f35b3480156100ad57600080fd5b506100b6610578565b005b3480156100c457600080fd5b506100df60048036038101906100da9190611479565b610627565b6040516100ef949392919061150e565b60405180910390f35b34801561010457600080fd5b5061011f600480360381019061011a91906115bc565b610795565b005b61013b60048036038101906101369190611479565b610a1c565b005b60008060003373ffffffffffffffffffffffffffffffffffffffff1673ffffffffffffffffffffffffffffffffffffffff168152602001908152602001600020905081600001518160000190816101949190611867565b5081604001518160020190816101aa9190611867565b5081606001518160030160006101000a81548161ffff021916908361ffff160217905550338160030160026101000a81548173ffffffffffffffffffffffffffffffffffffffff021916908373ffffffffffffffffffffffffffffffffffffffff1602179055505050565b6060600060018054905067ffffffffffffffff81111561023857610237610e02565b5b60405190808252806020026020018201604052801561027157816020015b61025e610c7d565b8152602001906001900390816102565790505b50905060005b6001805490508161ffff1610156105705760008060018361ffff16815481106102a3576102a2611939565b5b9060005260206000200160009054906101000a900473ffffffffffffffffffffffffffffffffffffffff1673ffffffffffffffffffffffffffffffffffffffff1673ffffffffffffffffffffffffffffffffffffffff1681526020019081526020016000206040518060a001604052908160008201805461032390611680565b80601f016020809104026020016040519081016040528092919081815260200182805461034f90611680565b801561039c5780601f106103715761010080835404028352916020019161039c565b820191906000526020600020905b81548152906001019060200180831161037f57829003601f168201915b505050505081526020016001820180548060200260200160405190810160405280929190818152602001828054801561042a57602002820191906000526020600020905b8160009054906101000a900473ffffffffffffffffffffffffffffffffffffffff1673ffffffffffffffffffffffffffffffffffffffff16815260200190600101908083116103e0575b5050505050815260200160028201805461044390611680565b80601f016020809104026020016040519081016040528092919081815260200182805461046f90611680565b80156104bc5780601f10610491576101008083540402835291602001916104bc565b820191906000526020600020905b81548152906001019060200180831161049f57829003601f168201915b505050505081526020016003820160009054906101000a900461ffff1661ffff1661ffff1681526020016003820160029054906101000a900473ffffffffffffffffffffffffffffffffffffffff1673ffffffffffffffffffffffffffffffffffffffff1673ffffffffffffffffffffffffffffffffffffffff1681525050828261ffff168151811061055257610551611939565b5b6020026020010181905250808061056890611997565b915050610277565b508091505090565b6000803373ffffffffffffffffffffffffffffffffffffffff1673ffffffffffffffffffffffffffffffffffffffff168152602001908152602001600020600080820160006105c79190610cc6565b6001820160006105d79190610d06565b6002820160006105e79190610cc6565b6003820160006101000a81549061ffff02191690556003820160026101000a81549073ffffffffffffffffffffffffffffffffffffffff02191690555050565b600060205280600052604060002060009150905080600001805461064a90611680565b80601f016020809104026020016040519081016040528092919081815260200182805461067690611680565b80156106c35780601f10610698576101008083540402835291602001916106c3565b820191906000526020600020905b8154815290600101906020018083116106a657829003601f168201915b5050505050908060020180546106d890611680565b80601f016020809104026020016040519081016040528092919081815260200182805461070490611680565b80156107515780601f1061072657610100808354040283529160200191610751565b820191906000526020600020905b81548152906001019060200180831161073457829003601f168201915b5050505050908060030160009054906101000a900461ffff16908060030160029054906101000a900473ffffffffffffffffffffffffffffffffffffffff16905084565b60006040518060a0016040528087878080601f016020809104026020016040519081016040528093929190818152602001838380828437600081840152601f19601f820116905080830192505050505050508152602001600067ffffffffffffffff81111561080757610806610e02565b5b6040519080825280602002602001820160405280156108355781602001602082028036833780820191505090505b50815260200185858080601f016020809104026020016040519081016040528093929190818152602001838380828437600081840152601f19601f8201169050808301925050505050505081526020018361ffff1681526020013373ffffffffffffffffffffffffffffffffffffffff168152509050806000803373ffffffffffffffffffffffffffffffffffffffff1673ffffffffffffffffffffffffffffffffffffffff16815260200190815260200160002060008201518160000190816108ff9190611867565b50602082015181600101908051906020019061091c929190610d27565b5060408201518160020190816109329190611867565b5060608201518160030160006101000a81548161ffff021916908361ffff16021790555060808201518160030160026101000a81548173ffffffffffffffffffffffffffffffffffffffff021916908373ffffffffffffffffffffffffffffffffffffffff1602179055509050506001339080600181540180825580915050600190039060005260206000200160009091909190916101000a81548173ffffffffffffffffffffffffffffffffffffffff021916908373ffffffffffffffffffffffffffffffffffffffff160217905550610a14816060015161ffff16610b9e565b505050505050565b6000808273ffffffffffffffffffffffffffffffffffffffff1673ffffffffffffffffffffffffffffffffffffffff16815260200190815260200160002060030160009054906101000a900461ffff1661ffff16341015610ab2576040517f08c379a0000000000000000000000000000000000000000000000000000000008152600401610aa990611a0d565b60405180910390fd5b6000808273ffffffffffffffffffffffffffffffffffffffff1673ffffffffffffffffffffffffffffffffffffffff168152602001908152602001600020600101339080600181540180825580915050600190039060005260206000200160009091909190916101000a81548173ffffffffffffffffffffffffffffffffffffffff021916908373ffffffffffffffffffffffffffffffffffffffff1602179055508073ffffffffffffffffffffffffffffffffffffffff166108fc349081150290604051600060405180830381858888f19350505050158015610b9a573d6000803e3d6000fd5b5050565b610c3481604051602401610bb29190611a3c565b6040516020818303038152906040527ff82c50f1000000000000000000000000000000000000000000000000000000007bffffffffffffffffffffffffffffffffffffffffffffffffffffffff19166020820180517bffffffffffffffffffffffffffffffffffffffffffffffffffffffff8381831617835250505050610c37565b50565b610c4e81610c46610c51610c72565b63ffffffff16565b50565b60006a636f6e736f6c652e6c6f679050600080835160208501845afa505050565b610db1819050919050565b6040518060a00160405280606081526020016060815260200160608152602001600061ffff168152602001600073ffffffffffffffffffffffffffffffffffffffff1681525090565b508054610cd290611680565b6000825580601f10610ce45750610d03565b601f016020900490600052602060002090810190610d029190610dbb565b5b50565b5080546000825590600052602060002090810190610d249190610dbb565b50565b828054828255906000526020600020908101928215610da0579160200282015b82811115610d9f5782518260006101000a81548173ffffffffffffffffffffffffffffffffffffffff021916908373ffffffffffffffffffffffffffffffffffffffff16021790555091602001919060010190610d47565b5b509050610dad9190610dbb565b5090565b610db9611a57565b565b5b80821115610dd4576000816000905550600101610dbc565b5090565b6000604051905090565b600080fd5b600080fd5b600080fd5b6000601f19601f8301169050919050565b7f4e487b7100000000000000000000000000000000000000000000000000000000600052604160045260246000fd5b610e3a82610df1565b810181811067ffffffffffffffff82111715610e5957610e58610e02565b5b80604052505050565b6000610e6c610dd8565b9050610e788282610e31565b919050565b600080fd5b600080fd5b600080fd5b600067ffffffffffffffff821115610ea757610ea6610e02565b5b610eb082610df1565b9050602081019050919050565b82818337600083830152505050565b6000610edf610eda84610e8c565b610e62565b905082815260208101848484011115610efb57610efa610e87565b5b610f06848285610ebd565b509392505050565b600082601f830112610f2357610f22610e82565b5b8135610f33848260208601610ecc565b91505092915050565b600067ffffffffffffffff821115610f5757610f56610e02565b5b602082029050602081019050919050565b600080fd5b600073ffffffffffffffffffffffffffffffffffffffff82169050919050565b6000610f9882610f6d565b9050919050565b610fa881610f8d565b8114610fb357600080fd5b50565b600081359050610fc581610f9f565b92915050565b6000610fde610fd984610f3c565b610e62565b9050808382526020820190506020840283018581111561100157611000610f68565b5b835b8181101561102a57806110168882610fb6565b845260208401935050602081019050611003565b5050509392505050565b600082601f83011261104957611048610e82565b5b8135611059848260208601610fcb565b91505092915050565b600061ffff82169050919050565b61107981611062565b811461108457600080fd5b50565b60008135905061109681611070565b92915050565b600060a082840312156110b2576110b1610dec565b5b6110bc60a0610e62565b9050600082013567ffffffffffffffff8111156110dc576110db610e7d565b5b6110e884828501610f0e565b600083015250602082013567ffffffffffffffff81111561110c5761110b610e7d565b5b61111884828501611034565b602083015250604082013567ffffffffffffffff81111561113c5761113b610e7d565b5b61114884828501610f0e565b604083015250606061115c84828501611087565b606083015250608061117084828501610fb6565b60808301525092915050565b60006020828403121561119257611191610de2565b5b600082013567ffffffffffffffff8111156111b0576111af610de7565b5b6111bc8482850161109c565b91505092915050565b600081519050919050565b600082825260208201905092915050565b6000819050602082019050919050565b600081519050919050565b600082825260208201905092915050565b60005b8381101561122b578082015181840152602081019050611210565b60008484015250505050565b6000611242826111f1565b61124c81856111fc565b935061125c81856020860161120d565b61126581610df1565b840191505092915050565b600081519050919050565b600082825260208201905092915050565b6000819050602082019050919050565b6112a581610f8d565b82525050565b60006112b7838361129c565b60208301905092915050565b6000602082019050919050565b60006112db82611270565b6112e5818561127b565b93506112f08361128c565b8060005b8381101561132157815161130888826112ab565b9750611313836112c3565b9250506001810190506112f4565b5085935050505092915050565b61133781611062565b82525050565b600060a083016000830151848203600086015261135a8282611237565b9150506020830151848203602086015261137482826112d0565b9150506040830151848203604086015261138e8282611237565b91505060608301516113a3606086018261132e565b5060808301516113b6608086018261129c565b508091505092915050565b60006113cd838361133d565b905092915050565b6000602082019050919050565b60006113ed826111c5565b6113f781856111d0565b935083602082028501611409856111e1565b8060005b85811015611445578484038952815161142685826113c1565b9450611431836113d5565b925060208a0199505060018101905061140d565b50829750879550505050505092915050565b6000602082019050818103600083015261147181846113e2565b905092915050565b60006020828403121561148f5761148e610de2565b5b600061149d84828501610fb6565b91505092915050565b600082825260208201905092915050565b60006114c2826111f1565b6114cc81856114a6565b93506114dc81856020860161120d565b6114e581610df1565b840191505092915050565b6114f981611062565b82525050565b61150881610f8d565b82525050565b6000608082019050818103600083015261152881876114b7565b9050818103602083015261153c81866114b7565b905061154b60408301856114f0565b61155860608301846114ff565b95945050505050565b600080fd5b60008083601f84011261157c5761157b610e82565b5b8235905067ffffffffffffffff81111561159957611598611561565b5b6020830191508360018202830111156115b5576115b4610f68565b5b9250929050565b6000806000806000606086880312156115d8576115d7610de2565b5b600086013567ffffffffffffffff8111156115f6576115f5610de7565b5b61160288828901611566565b9550955050602086013567ffffffffffffffff81111561162557611624610de7565b5b61163188828901611566565b9350935050604061164488828901611087565b9150509295509295909350565b7f4e487b7100000000000000000000000000000000000000000000000000000000600052602260045260246000fd5b6000600282049050600182168061169857607f821691505b6020821081036116ab576116aa611651565b5b50919050565b60008190508160005260206000209050919050565b60006020601f8301049050919050565b600082821b905092915050565b6000600883026117137fffffffffffffffffffffffffffffffffffffffffffffffffffffffffffffffff826116d6565b61171d86836116d6565b95508019841693508086168417925050509392505050565b6000819050919050565b6000819050919050565b600061176461175f61175a84611735565b61173f565b611735565b9050919050565b6000819050919050565b61177e83611749565b61179261178a8261176b565b8484546116e3565b825550505050565b600090565b6117a761179a565b6117b2818484611775565b505050565b5b818110156117d6576117cb60008261179f565b6001810190506117b8565b5050565b601f82111561181b576117ec816116b1565b6117f5846116c6565b81016020851015611804578190505b611818611810856116c6565b8301826117b7565b50505b505050565b600082821c905092915050565b600061183e60001984600802611820565b1980831691505092915050565b6000611857838361182d565b9150826002028217905092915050565b611870826111f1565b67ffffffffffffffff81111561188957611888610e02565b5b6118938254611680565b61189e8282856117da565b600060209050601f8311600181146118d157600084156118bf578287015190505b6118c9858261184b565b865550611931565b601f1984166118df866116b1565b60005b82811015611907578489015182556001820191506020850194506020810190506118e2565b868310156119245784890151611920601f89168261182d565b8355505b6001600288020188555050505b505050505050565b7f4e487b7100000000000000000000000000000000000000000000000000000000600052603260045260246000fd5b7f4e487b7100000000000000000000000000000000000000000000000000000000600052601160045260246000fd5b60006119a282611062565b915061ffff82036119b6576119b5611968565b5b600182019050919050565b7f4e6f7420656e6f7567682066756e647320746f20707572636861736500000000600082015250565b60006119f7601c836114a6565b9150611a02826119c1565b602082019050919050565b60006020820190508181036000830152611a26816119ea565b9050919050565b611a3681611735565b82525050565b6000602082019050611a516000830184611a2d565b92915050565b7f4e487b7100000000000000000000000000000000000000000000000000000000600052605160045260246000fdfea264697066735822122006cb2da984dd52080986ef9f0508ec873e2ce485ea19a7dca5a4d5997190b68a64736f6c63430008180033",
  "devdoc": {
    "kind": "dev",
    "methods": {},
    "version": 1
  },
  "userdoc": {
    "kind": "user",
    "methods": {},
    "version": 1
  },
  "storageLayout": {
    "storage": [
      {
        "astId": 23,
        "contract": "contracts/DataStorage.sol:DataStorage",
        "label": "genomeData",
        "offset": 0,
        "slot": "0",
        "type": "t_mapping(t_address,t_struct(GenomeData)18_storage)"
      },
      {
        "astId": 26,
        "contract": "contracts/DataStorage.sol:DataStorage",
        "label": "users",
        "offset": 0,
        "slot": "1",
        "type": "t_array(t_address)dyn_storage"
      }
    ],
    "types": {
      "t_address": {
        "encoding": "inplace",
        "label": "address",
        "numberOfBytes": "20"
      },
      "t_array(t_address)dyn_storage": {
        "base": "t_address",
        "encoding": "dynamic_array",
        "label": "address[]",
        "numberOfBytes": "32"
      },
      "t_mapping(t_address,t_struct(GenomeData)18_storage)": {
        "encoding": "mapping",
        "key": "t_address",
        "label": "mapping(address => struct DataStorage.GenomeData)",
        "numberOfBytes": "32",
        "value": "t_struct(GenomeData)18_storage"
      },
      "t_string_storage": {
        "encoding": "bytes",
        "label": "string",
        "numberOfBytes": "32"
      },
      "t_struct(GenomeData)18_storage": {
        "encoding": "inplace",
        "label": "struct DataStorage.GenomeData",
        "members": [
          {
            "astId": 8,
            "contract": "contracts/DataStorage.sol:DataStorage",
            "label": "encryptedData",
            "offset": 0,
            "slot": "0",
            "type": "t_string_storage"
          },
          {
            "astId": 11,
            "contract": "contracts/DataStorage.sol:DataStorage",
            "label": "permittedAddresses",
            "offset": 0,
            "slot": "1",
            "type": "t_array(t_address)dyn_storage"
          },
          {
            "astId": 13,
            "contract": "contracts/DataStorage.sol:DataStorage",
            "label": "typeOfData",
            "offset": 0,
            "slot": "2",
            "type": "t_string_storage"
          },
          {
            "astId": 15,
            "contract": "contracts/DataStorage.sol:DataStorage",
            "label": "price",
            "offset": 0,
            "slot": "3",
            "type": "t_uint16"
          },
          {
            "astId": 17,
            "contract": "contracts/DataStorage.sol:DataStorage",
            "label": "userAddress",
            "offset": 2,
            "slot": "3",
            "type": "t_address"
          }
        ],
        "numberOfBytes": "128"
      },
      "t_uint16": {
        "encoding": "inplace",
        "label": "uint16",
        "numberOfBytes": "2"
      }
    }
  }
}